{
  "transactions": [
    {
      "hash": "0xe8bd9dd2d7c8bae97a4861612585f67ae0b86a8f687759c86b7779bb600312b3",
      "transactionType": "CREATE",
      "contractName": "Registry",
      "contractAddress": "0x74a2e9c4d0e4bd8b3cad1a924685344bf808e458",
      "function": null,
      "arguments": null,
      "transaction": {
        "from": "0x385f472d28796f1c5138a14f2005608317578739",
        "gas": "0x5e3a2",
        "value": "0x0",
        "input": "0x608080604052346071573315605e575f8054336001600160a01b0319821681178355916001600160a01b03909116907f8be0079c531659141344cd1fd0a4f28419497f9722a3daafe3b4186f6b6457e09080a36103f390816100768239f35b631e4fbdf760e01b5f525f60045260245ffd5b5f80fdfe60806040526004361015610011575f80fd5b5f3560e01c806304433bbc14610248578063534e785c146101c8578063715018a6146101715780638da5cb5b1461014a57806392a296c9146100e85763f2fde38b1461005b575f80fd5b346100e45760203660031901126100e4576004356001600160a01b038116908190036100e457610089610397565b80156100d1575f80546001600160a01b03198116831782556001600160a01b0316907f8be0079c531659141344cd1fd0a4f28419497f9722a3daafe3b4186f6b6457e09080a3005b631e4fbdf760e01b5f525f60045260245ffd5b5f80fd5b346100e45760203660031901126100e45760043567ffffffffffffffff81116100e45761011b602091369060040161031b565b8160405191805191829101835e600190820190815281900382019020546040516001600160a01b039091168152f35b346100e4575f3660031901126100e4575f546040516001600160a01b039091168152602090f35b346100e4575f3660031901126100e457610189610397565b5f80546001600160a01b0319811682556001600160a01b03167f8be0079c531659141344cd1fd0a4f28419497f9722a3daafe3b4186f6b6457e08280a3005b346100e45760403660031901126100e45760043567ffffffffffffffff81116100e4576101f990369060040161031b565b6024356001600160a01b03811691908290036100e4576020809161021b610397565b604051928184925191829101835e60019082019081520301902080546001600160a01b0319169091179055005b346100e45760203660031901126100e45760043567ffffffffffffffff81116100e45761027990369060040161031b565b6040519080519160208201928084835e60019082019081528190036020019020546001600160a01b0316156102d65760209160405191518091835e600190820190815281900382019020546040516001600160a01b039091168152f35b60405162461bcd60e51b815260206004820152601d60248201527f5265676973747279203a3a2041646472657373206e6f7420666f756e640000006044820152606490fd5b81601f820112156100e45780359067ffffffffffffffff82116103835760405192601f8301601f19908116603f0116840167ffffffffffffffff81118582101761038357604052828452602083830101116100e457815f926020809301838601378301015290565b634e487b7160e01b5f52604160045260245ffd5b5f546001600160a01b031633036103aa57565b63118cdaa760e01b5f523360045260245ffdfea2646970667358221220a442875b3fdae6ddfd345805ddd8783437d92e59ddc2b944ddd03644c582910a64736f6c634300081c0033",
        "nonce": "0x6",
        "chainId": "0x45a"
      },
      "additionalContracts": [],
      "isFixedGasLimit": false
    },
    {
      "hash": "0x6d90c2e9b6844fa8cfc9d7f61a7850798d2e7a8b4ade69015c49e6f2aa1bb47d",
      "transactionType": "CALL",
      "contractName": "Registry",
      "contractAddress": "0x74a2e9c4d0e4bd8b3cad1a924685344bf808e458",
      "function": "setContractAddress(string,address)",
      "arguments": [
        "TEST",
        "0x385F472D28796F1c5138A14f2005608317578739"
      ],
      "transaction": {
        "from": "0x385f472d28796f1c5138a14f2005608317578739",
        "to": "0x74a2e9c4d0e4bd8b3cad1a924685344bf808e458",
        "gas": "0xfca9",
        "value": "0x0",
        "input": "0x534e785c0000000000000000000000000000000000000000000000000000000000000040000000000000000000000000385f472d28796f1c5138a14f200560831757873900000000000000000000000000000000000000000000000000000000000000045445535400000000000000000000000000000000000000000000000000000000",
        "nonce": "0x7",
        "chainId": "0x45a"
      },
      "additionalContracts": [],
      "isFixedGasLimit": false
    }
  ],
  "receipts": [
    {
      "status": "0x1",
      "cumulativeGasUsed": "0x487b8",
      "logs": [
        {
          "address": "0x74a2e9c4d0e4bd8b3cad1a924685344bf808e458",
          "topics": [
            "0x8be0079c531659141344cd1fd0a4f28419497f9722a3daafe3b4186f6b6457e0",
            "0x0000000000000000000000000000000000000000000000000000000000000000",
            "0x000000000000000000000000385f472d28796f1c5138a14f2005608317578739"
          ],
          "data": "0x",
          "blockHash": "0xf18ed61a966e83bb992b38d4f86f8eaf1c9528a6811a0bb1630fa959e9659da5",
          "blockNumber": "0x1edddf",
          "transactionHash": "0xe8bd9dd2d7c8bae97a4861612585f67ae0b86a8f687759c86b7779bb600312b3",
          "transactionIndex": "0x0",
          "logIndex": "0x0",
          "removed": false
        }
      ],
      "logsBloom": "0x00000000000000000001000000000000000000000000000000800000000000000000000000000000000000000000000000000000002000000000000000000000000000000000000000000000000000000001000000000000000000000000000000000200020000000000000080000800000000008000000000000000000000400000000000000000000000000000000000000000000000000000000000000000000000000000000000000000000000000000400000000000000000000000000000000000000000000000000000000000000000000000000000000000000020000000000000000000000000000000000000000000000000000000000000000000",
      "type": "0x0",
      "transactionHash": "0xe8bd9dd2d7c8bae97a4861612585f67ae0b86a8f687759c86b7779bb600312b3",
      "transactionIndex": "0x0",
      "blockHash": "0xf18ed61a966e83bb992b38d4f86f8eaf1c9528a6811a0bb1630fa959e9659da5",
      "blockNumber": "0x1edddf",
      "gasUsed": "0x487b8",
      "effectiveGasPrice": "0x826299e00",
      "from": "0x385f472d28796f1c5138a14f2005608317578739",
      "to": null,
      "contractAddress": "0x74a2e9c4d0e4bd8b3cad1a924685344bf808e458"
    }
  ],
  "libraries": [],
  "pending": [],
  "returns": {},
  "timestamp": 1739266702,
  "chain": 1114,
  "commit": "140f39e"
}