{
  "transactions": [
    {
      "hash": "0x28682792c61dff44ade7c09582f43363711b34c14ce19623b2712edab60ad3ac",
      "transactionType": "CREATE",
      "contractName": "Registry",
      "contractAddress": "0x076b1285b793a83d972fc1e644bc1ed013eaece6",
      "function": null,
      "arguments": null,
      "transaction": {
        "from": "0x385f472d28796f1c5138a14f2005608317578739",
        "gas": "0x4ea99",
        "value": "0x0",
        "input": "0x608080604052346071573315605e575f8054336001600160a01b0319821681178355916001600160a01b03909116907f8be0079c531659141344cd1fd0a4f28419497f9722a3daafe3b4186f6b6457e09080a361031090816100768239f35b631e4fbdf760e01b5f525f60045260245ffd5b5f80fdfe6080806040526004361015610012575f80fd5b5f3560e01c9081630d2020dd1461022057508063715018a6146101c95780637ef50298146101975780638da5cb5b14610170578063e001f841146100eb5763f2fde38b1461005e575f80fd5b346100e75760203660031901126100e7576004356001600160a01b038116908190036100e75761008c6102b4565b80156100d4575f80546001600160a01b03198116831782556001600160a01b0316907f8be0079c531659141344cd1fd0a4f28419497f9722a3daafe3b4186f6b6457e09080a3005b631e4fbdf760e01b5f525f60045260245ffd5b5f80fd5b346100e75760403660031901126100e7576004356024356001600160a01b038116908190036100e7577f93944d1916457afa794f5da38d669341816983c303bca958cc0003bd948627cd916040916101416102b4565b815f526001602052825f20816bffffffffffffffffffffffff60a01b82541617905582519182526020820152a1005b346100e7575f3660031901126100e7575f546040516001600160a01b039091168152602090f35b346100e75760203660031901126100e7576004355f526001602052602060018060a01b0360405f205416604051908152f35b346100e7575f3660031901126100e7576101e16102b4565b5f80546001600160a01b0319811682556001600160a01b03167f8be0079c531659141344cd1fd0a4f28419497f9722a3daafe3b4186f6b6457e08280a3005b346100e75760203660031901126100e7576004355f818152600160205260409020549091906001600160a01b03161561027257505f526001602052602060018060a01b0360405f205416604051908152f35b62461bcd60e51b815260206004820152601d60248201527f5265676973747279203a3a2041646472657373206e6f7420666f756e640000006044820152606490fd5b5f546001600160a01b031633036102c757565b63118cdaa760e01b5f523360045260245ffdfea26469706673582212200403c58c20d0580958900fd0ff8a7aa1d7d92be0192f8c487beed6250fd98b6d64736f6c634300081c0033",
        "nonce": "0x12",
        "chainId": "0x45a"
      },
      "additionalContracts": [],
      "isFixedGasLimit": false
    },
    {
      "hash": "0xdaa500160e54290f34eb380051992f80d66c49abd5b9b58cd0b86094159b3f55",
      "transactionType": "CREATE",
      "contractName": "CounterGame",
      "contractAddress": "0x00cc9c534d57fa29d4e26802c63db615d99df23c",
      "function": null,
      "arguments": null,
      "transaction": {
        "from": "0x385f472d28796f1c5138a14f2005608317578739",
        "gas": "0x596b6",
        "value": "0x0",
        "input": "0x608080604052346071573315605e575f8054336001600160a01b0319821681178355916001600160a01b03909116907f8be0079c531659141344cd1fd0a4f28419497f9722a3daafe3b4186f6b6457e09080a36103ad90816100768239f35b631e4fbdf760e01b5f525f60045260245ffd5b5f80fdfe6080806040526004361015610012575f80fd5b5f3560e01c90816352e9a6401461029757508063715018a6146102405780637b103999146102185780638a19c8bc146101fb5780638da5cb5b146101d4578063a91ee0dc1461018a578063c732d2011461016d578063d09de08a14610153578063f2fde38b146100ca5763f50ddbc71461008a575f80fd5b346100c65760203660031901126100c6576004356001600160a01b038116908190036100c6575f526003602052602060405f2054604051908152f35b5f80fd5b346100c65760203660031901126100c6576004356001600160a01b038116908190036100c6576100f8610351565b8015610140575f80546001600160a01b03198116831782556001600160a01b0316907f8be0079c531659141344cd1fd0a4f28419497f9722a3daafe3b4186f6b6457e09080a3005b631e4fbdf760e01b5f525f60045260245ffd5b346100c6575f3660031901126100c65761016b6102e7565b005b346100c6575f3660031901126100c6576020600554604051908152f35b346100c65760203660031901126100c6576004356001600160a01b038116908190036100c6576101b8610351565b6bffffffffffffffffffffffff60a01b60015416176001555f80f35b346100c6575f3660031901126100c6575f546040516001600160a01b039091168152602090f35b346100c6575f3660031901126100c6576020600454604051908152f35b346100c6575f3660031901126100c6576001546040516001600160a01b039091168152602090f35b346100c6575f3660031901126100c657610258610351565b5f80546001600160a01b0319811682556001600160a01b03167f8be0079c531659141344cd1fd0a4f28419497f9722a3daafe3b4186f6b6457e08280a3005b346100c65760203660031901126100c6576020906004355f526002825260018060a01b0360405f2054168152f35b5f1981146102d35760010190565b634e487b7160e01b5f52601160045260245ffd5b600a6102f46005546102c5565b80600555101561030057565b5f6005556004545f52600260205260405f20336bffffffffffffffffffffffff60a01b8254161790556103346004546102c5565b600455335f52600360205260405f2061034d81546102c5565b9055565b5f546001600160a01b0316330361036457565b63118cdaa760e01b5f523360045260245ffdfea26469706673582212201b43b8445052219f76ba4a7b8c93f78e28962d584a472c053f76a8d3b151d18264736f6c634300081c0033",
        "nonce": "0x13",
        "chainId": "0x45a"
      },
      "additionalContracts": [],
      "isFixedGasLimit": false
    },
    {
      "hash": "0xb328578c800f480a6f97d2a8a4cd8ea68a9546903e5944627209c87553e0425c",
      "transactionType": "CALL",
      "contractName": "Registry",
      "contractAddress": "0x076b1285b793a83d972fc1e644bc1ed013eaece6",
      "function": "setContractAddress(bytes32,address)",
      "arguments": [
        "0x436f756e74657247616d65000000000000000000000000000000000000000000",
        "0x00cC9c534d57Fa29D4e26802C63db615d99df23C"
      ],
      "transaction": {
        "from": "0x385f472d28796f1c5138a14f2005608317578739",
        "to": "0x076b1285b793a83d972fc1e644bc1ed013eaece6",
        "gas": "0x100e9",
        "value": "0x0",
        "input": "0xe001f841436f756e74657247616d6500000000000000000000000000000000000000000000000000000000000000000000cc9c534d57fa29d4e26802c63db615d99df23c",
        "nonce": "0x14",
        "chainId": "0x45a"
      },
      "additionalContracts": [],
      "isFixedGasLimit": false
    }
  ],
  "receipts": [
    {
      "status": "0x1",
      "cumulativeGasUsed": "0x3c827",
      "logs": [
        {
          "address": "0x076b1285b793a83d972fc1e644bc1ed013eaece6",
          "topics": [
            "0x8be0079c531659141344cd1fd0a4f28419497f9722a3daafe3b4186f6b6457e0",
            "0x0000000000000000000000000000000000000000000000000000000000000000",
            "0x000000000000000000000000385f472d28796f1c5138a14f2005608317578739"
          ],
          "data": "0x",
          "blockHash": "0xd7ad60d517e7149209449f896e54fae10aaf981f3c9f29595b6d76175d542845",
          "blockNumber": "0x1ede88",
          "transactionHash": "0x28682792c61dff44ade7c09582f43363711b34c14ce19623b2712edab60ad3ac",
          "transactionIndex": "0x0",
          "logIndex": "0x0",
          "removed": false
        }
      ],
      "logsBloom": "0x00000000000000000000000000000000000000000000000000800000000000000000000000000000000000000000000000000000002000000000000000000000000000000000000000000000000000000001000000000000000000000000000000000200020000000000002000000800000000008000000000000000000000400000000000000000000000000000000000000000000000004000000000000000000000000000000000000000000000000000000000000000000000000000000000000000000000000000000000000000000000000000000000000080000020000000000000000000000000000000000000000000000000000000000000000000",
      "type": "0x0",
      "transactionHash": "0x28682792c61dff44ade7c09582f43363711b34c14ce19623b2712edab60ad3ac",
      "transactionIndex": "0x0",
      "blockHash": "0xd7ad60d517e7149209449f896e54fae10aaf981f3c9f29595b6d76175d542845",
      "blockNumber": "0x1ede88",
      "gasUsed": "0x3c827",
      "effectiveGasPrice": "0x826299e00",
      "from": "0x385f472d28796f1c5138a14f2005608317578739",
      "to": null,
      "contractAddress": "0x076b1285b793a83d972fc1e644bc1ed013eaece6"
    },
    {
      "status": "0x1",
      "cumulativeGasUsed": "0x44c8c",
      "logs": [
        {
          "address": "0x00cc9c534d57fa29d4e26802c63db615d99df23c",
          "topics": [
            "0x8be0079c531659141344cd1fd0a4f28419497f9722a3daafe3b4186f6b6457e0",
            "0x0000000000000000000000000000000000000000000000000000000000000000",
            "0x000000000000000000000000385f472d28796f1c5138a14f2005608317578739"
          ],
          "data": "0x",
          "blockHash": "0xabbbe1c35355f73c3a5a0478e057aaa026c33bb987dbb4b732a65b29606cacea",
          "blockNumber": "0x1ede89",
          "transactionHash": "0xdaa500160e54290f34eb380051992f80d66c49abd5b9b58cd0b86094159b3f55",
          "transactionIndex": "0x0",
          "logIndex": "0x0",
          "removed": false
        }
      ],
      "logsBloom": "0x00000000000000000000000000000000000000000000000000800000000000000000000000000000000000000000000000000000002000000000000000000000000000000000000000000000000000000001000000010000000000000000000000000200020000000000000000000800000000008000000000000000000001400000000000000000000000000000000000000000000000000000000000000000000000000000000000000000000000000000000000002000000000000000000000000000000000000000000000000000000000000000000000000000000020000000000000000000000000000000000000000000000000000000000000000000",
      "type": "0x0",
      "transactionHash": "0xdaa500160e54290f34eb380051992f80d66c49abd5b9b58cd0b86094159b3f55",
      "transactionIndex": "0x0",
      "blockHash": "0xabbbe1c35355f73c3a5a0478e057aaa026c33bb987dbb4b732a65b29606cacea",
      "blockNumber": "0x1ede89",
      "gasUsed": "0x44c8c",
      "effectiveGasPrice": "0x826299e00",
      "from": "0x385f472d28796f1c5138a14f2005608317578739",
      "to": null,
      "contractAddress": "0x00cc9c534d57fa29d4e26802c63db615d99df23c"
    },
    {
      "status": "0x1",
      "cumulativeGasUsed": "0xba00",
      "logs": [
        {
          "address": "0x076b1285b793a83d972fc1e644bc1ed013eaece6",
          "topics": [
            "0x93944d1916457afa794f5da38d669341816983c303bca958cc0003bd948627cd"
          ],
          "data": "0x436f756e74657247616d6500000000000000000000000000000000000000000000000000000000000000000000cc9c534d57fa29d4e26802c63db615d99df23c",
          "blockHash": "0xb9d18c8affef548871a52ae06048fbb228f6d2af043dead6bf2a665a9961b4d0",
          "blockNumber": "0x1ede8a",
          "transactionHash": "0xb328578c800f480a6f97d2a8a4cd8ea68a9546903e5944627209c87553e0425c",
          "transactionIndex": "0x0",
          "logIndex": "0x0",
          "removed": false
        }
      ],
      "logsBloom": "0x00000000000000000000000000000000000000000000000000000000000000000000000000000000000000000000000000000000000000000000000000000000000000000020000000000000000000000000000080000000000000000000000000000000000000000000002000000000000000000000000000000000000000000000000000000000000000000000000000000000000000004000000000000000100000000000000000000000000000000000000000000000000000000000000000000000000000000000000000000000000000000000000000000080000000000000000000000000000000000000000000000000000000000000000000000000",
      "type": "0x0",
      "transactionHash": "0xb328578c800f480a6f97d2a8a4cd8ea68a9546903e5944627209c87553e0425c",
      "transactionIndex": "0x0",
      "blockHash": "0xb9d18c8affef548871a52ae06048fbb228f6d2af043dead6bf2a665a9961b4d0",
      "blockNumber": "0x1ede8a",
      "gasUsed": "0xba00",
      "effectiveGasPrice": "0x826299e00",
      "from": "0x385f472d28796f1c5138a14f2005608317578739",
      "to": "0x076b1285b793a83d972fc1e644bc1ed013eaece6",
      "contractAddress": null
    }
  ],
  "libraries": [],
  "pending": [],
  "returns": {},
  "timestamp": 1739267213,
  "chain": 1114,
  "commit": "140f39e"
}