{
  "transactions": [
    {
      "hash": "0x523bff80881466e2e771203a13d1cf17f4c8c8b72d0f4e2c150ab0c816393d29",
      "transactionType": "CREATE",
      "contractName": "Registry",
      "contractAddress": "0xa2a9f9bd5448ac01730814a30e93c077e39e2a57",
      "function": null,
      "arguments": null,
      "transaction": {
        "from": "0x385f472d28796f1c5138a14f2005608317578739",
        "gas": "0x4b18a",
        "value": "0x0",
        "input": "0x608080604052346071573315605e575f8054336001600160a01b0319821681178355916001600160a01b03909116907f8be0079c531659141344cd1fd0a4f28419497f9722a3daafe3b4186f6b6457e09080a36102dc90816100768239f35b631e4fbdf760e01b5f525f60045260245ffd5b5f80fdfe6080806040526004361015610012575f80fd5b5f3560e01c9081630d2020dd146101ec57508063715018a6146101955780637ef50298146101635780638da5cb5b1461013c578063e001f841146100eb5763f2fde38b1461005e575f80fd5b346100e75760203660031901126100e7576004356001600160a01b038116908190036100e75761008c610280565b80156100d4575f80546001600160a01b03198116831782556001600160a01b0316907f8be0079c531659141344cd1fd0a4f28419497f9722a3daafe3b4186f6b6457e09080a3005b631e4fbdf760e01b5f525f60045260245ffd5b5f80fd5b346100e75760403660031901126100e7576024356001600160a01b038116908190036100e757610119610280565b6004355f90815260016020526040902080546001600160a01b0319169091179055005b346100e7575f3660031901126100e7575f546040516001600160a01b039091168152602090f35b346100e75760203660031901126100e7576004355f526001602052602060018060a01b0360405f205416604051908152f35b346100e7575f3660031901126100e7576101ad610280565b5f80546001600160a01b0319811682556001600160a01b03167f8be0079c531659141344cd1fd0a4f28419497f9722a3daafe3b4186f6b6457e08280a3005b346100e75760203660031901126100e7576004355f818152600160205260409020549091906001600160a01b03161561023e57505f526001602052602060018060a01b0360405f205416604051908152f35b62461bcd60e51b815260206004820152601d60248201527f5265676973747279203a3a2041646472657373206e6f7420666f756e640000006044820152606490fd5b5f546001600160a01b0316330361029357565b63118cdaa760e01b5f523360045260245ffdfea264697066735822122040180e970fd74c3ef5cc5c12daca7adefeb07821887a63dd0ba746694e2b375264736f6c634300081c0033",
        "nonce": "0xc",
        "chainId": "0x45a"
      },
      "additionalContracts": [],
      "isFixedGasLimit": false
    },
    {
      "hash": "0xa6fb9566a0e9b697cf1d27bcf4f39a7fd41545e028ae3b0943816384682f631b",
      "transactionType": "CALL",
      "contractName": "Registry",
      "contractAddress": "0xa2a9f9bd5448ac01730814a30e93c077e39e2a57",
      "function": "setContractAddress(bytes32,address)",
      "arguments": [
        "0x5445535400000000000000000000000000000000000000000000000000000000",
        "0x385F472D28796F1c5138A14f2005608317578739"
      ],
      "transaction": {
        "from": "0x385f472d28796f1c5138a14f2005608317578739",
        "to": "0xa2a9f9bd5448ac01730814a30e93c077e39e2a57",
        "gas": "0x10838",
        "value": "0x0",
        "input": "0xe001f8415445535400000000000000000000000000000000000000000000000000000000000000000000000000000000385f472d28796f1c5138a14f2005608317578739",
        "nonce": "0xd",
        "chainId": "0x45a"
      },
      "additionalContracts": [],
      "isFixedGasLimit": false
    }
  ],
  "receipts": [
    {
      "status": "0x1",
      "cumulativeGasUsed": "0x39c43",
      "logs": [
        {
          "address": "0xa2a9f9bd5448ac01730814a30e93c077e39e2a57",
          "topics": [
            "0x8be0079c531659141344cd1fd0a4f28419497f9722a3daafe3b4186f6b6457e0",
            "0x0000000000000000000000000000000000000000000000000000000000000000",
            "0x000000000000000000000000385f472d28796f1c5138a14f2005608317578739"
          ],
          "data": "0x",
          "blockHash": "0xf84ff7b77f2e75a4fd0ed420734d8af5754ba037a6024039b9b12b6c7e4c82df",
          "blockNumber": "0x1ede51",
          "transactionHash": "0x523bff80881466e2e771203a13d1cf17f4c8c8b72d0f4e2c150ab0c816393d29",
          "transactionIndex": "0x0",
          "logIndex": "0x0",
          "removed": false
        }
      ],
      "logsBloom": "0x00000000000000000000000000200000000000000000000000800000000000000000000000000000000000000000000000000000002000000000000000000000040000000000000000000000000000000001000000000000000000000000000000000200020000000000000000000800000000008000000000000000000000400000000000000000000000000000000000000000000000000000000000000000000000000000000000000000000000000000000000000000000000000000000000000000000000000000000000000800000000000000000000000000000020000000000000000000000000000000000000000000000000000000000000000000",
      "type": "0x0",
      "transactionHash": "0x523bff80881466e2e771203a13d1cf17f4c8c8b72d0f4e2c150ab0c816393d29",
      "transactionIndex": "0x0",
      "blockHash": "0xf84ff7b77f2e75a4fd0ed420734d8af5754ba037a6024039b9b12b6c7e4c82df",
      "blockNumber": "0x1ede51",
      "gasUsed": "0x39c43",
      "effectiveGasPrice": "0x826299e00",
      "from": "0x385f472d28796f1c5138a14f2005608317578739",
      "to": null,
      "contractAddress": "0xa2a9f9bd5448ac01730814a30e93c077e39e2a57"
    },
    {
      "status": "0x1",
      "cumulativeGasUsed": "0xb4aa",
      "logs": [],
      "logsBloom": "0x00000000000000000000000000000000000000000000000000000000000000000000000000000000000000000000000000000000000000000000000000000000000000000000000000000000000000000000000000000000000000000000000000000000000000000000000000000000000000000000000000000000000000000000000000000000000000000000000000000000000000000000000000000000000000000000000000000000000000000000000000000000000000000000000000000000000000000000000000000000000000000000000000000000000000000000000000000000000000000000000000000000000000000000000000000000",
      "type": "0x0",
      "transactionHash": "0xa6fb9566a0e9b697cf1d27bcf4f39a7fd41545e028ae3b0943816384682f631b",
      "transactionIndex": "0x0",
      "blockHash": "0x852a385c0aa168ecd76cf17f97c17bafa88493f44b0fc1a7ea061d2a647f67bd",
      "blockNumber": "0x1ede52",
      "gasUsed": "0xb4aa",
      "effectiveGasPrice": "0x826299e00",
      "from": "0x385f472d28796f1c5138a14f2005608317578739",
      "to": "0xa2a9f9bd5448ac01730814a30e93c077e39e2a57",
      "contractAddress": null
    }
  ],
  "libraries": [],
  "pending": [],
  "returns": {},
  "timestamp": 1739267044,
  "chain": 1114,
  "commit": "140f39e"
}