{
  "transactions": [
    {
      "hash": "0x486cae8b2d538607df873f116e090ac897c713e86f8d1c2f47c357b0ca9a5c15",
      "transactionType": "CREATE",
      "contractName": "Registry",
      "contractAddress": "0x15e6e7d790255096f34e7119cbd6b9886cd85e18",
      "function": null,
      "arguments": null,
      "transaction": {
        "from": "0x385f472d28796f1c5138a14f2005608317578739",
        "gas": "0x4ea99",
        "value": "0x0",
        "input": "0x608080604052346071573315605e575f8054336001600160a01b0319821681178355916001600160a01b03909116907f8be0079c531659141344cd1fd0a4f28419497f9722a3daafe3b4186f6b6457e09080a361031090816100768239f35b631e4fbdf760e01b5f525f60045260245ffd5b5f80fdfe6080806040526004361015610012575f80fd5b5f3560e01c9081630d2020dd1461022057508063715018a6146101c95780637ef50298146101975780638da5cb5b14610170578063e001f841146100eb5763f2fde38b1461005e575f80fd5b346100e75760203660031901126100e7576004356001600160a01b038116908190036100e75761008c6102b4565b80156100d4575f80546001600160a01b03198116831782556001600160a01b0316907f8be0079c531659141344cd1fd0a4f28419497f9722a3daafe3b4186f6b6457e09080a3005b631e4fbdf760e01b5f525f60045260245ffd5b5f80fd5b346100e75760403660031901126100e7576004356024356001600160a01b038116908190036100e7577f93944d1916457afa794f5da38d669341816983c303bca958cc0003bd948627cd916040916101416102b4565b815f526001602052825f20816bffffffffffffffffffffffff60a01b82541617905582519182526020820152a1005b346100e7575f3660031901126100e7575f546040516001600160a01b039091168152602090f35b346100e75760203660031901126100e7576004355f526001602052602060018060a01b0360405f205416604051908152f35b346100e7575f3660031901126100e7576101e16102b4565b5f80546001600160a01b0319811682556001600160a01b03167f8be0079c531659141344cd1fd0a4f28419497f9722a3daafe3b4186f6b6457e08280a3005b346100e75760203660031901126100e7576004355f818152600160205260409020549091906001600160a01b03161561027257505f526001602052602060018060a01b0360405f205416604051908152f35b62461bcd60e51b815260206004820152601d60248201527f5265676973747279203a3a2041646472657373206e6f7420666f756e640000006044820152606490fd5b5f546001600160a01b031633036102c757565b63118cdaa760e01b5f523360045260245ffdfea26469706673582212200403c58c20d0580958900fd0ff8a7aa1d7d92be0192f8c487beed6250fd98b6d64736f6c634300081c0033",
        "nonce": "0x10",
        "chainId": "0x45a"
      },
      "additionalContracts": [],
      "isFixedGasLimit": false
    },
    {
      "hash": "0x8002d312d6d6f0c16e4eddabd66f15e55cc42f812d9b256cccc19bd84fe06e9a",
      "transactionType": "CALL",
      "contractName": "Registry",
      "contractAddress": "0x15e6e7d790255096f34e7119cbd6b9886cd85e18",
      "function": "setContractAddress(bytes32,address)",
      "arguments": [
        "0x5445535400000000000000000000000000000000000000000000000000000000",
        "0x385F472D28796F1c5138A14f2005608317578739"
      ],
      "transaction": {
        "from": "0x385f472d28796f1c5138a14f2005608317578739",
        "to": "0x15e6e7d790255096f34e7119cbd6b9886cd85e18",
        "gas": "0x10085",
        "value": "0x0",
        "input": "0xe001f8415445535400000000000000000000000000000000000000000000000000000000000000000000000000000000385f472d28796f1c5138a14f2005608317578739",
        "nonce": "0x11",
        "chainId": "0x45a"
      },
      "additionalContracts": [],
      "isFixedGasLimit": false
    }
  ],
  "receipts": [
    {
      "status": "0x1",
      "cumulativeGasUsed": "0x3c827",
      "logs": [
        {
          "address": "0x15e6e7d790255096f34e7119cbd6b9886cd85e18",
          "topics": [
            "0x8be0079c531659141344cd1fd0a4f28419497f9722a3daafe3b4186f6b6457e0",
            "0x0000000000000000000000000000000000000000000000000000000000000000",
            "0x000000000000000000000000385f472d28796f1c5138a14f2005608317578739"
          ],
          "data": "0x",
          "blockHash": "0x24263b6da85cfce731c1e4f8998a4b9f15a7473bc62bee12ea78f89419c2a072",
          "blockNumber": "0x1ede66",
          "transactionHash": "0x486cae8b2d538607df873f116e090ac897c713e86f8d1c2f47c357b0ca9a5c15",
          "transactionIndex": "0x0",
          "logIndex": "0x0",
          "removed": false
        }
      ],
      "logsBloom": "0x00000000000000000000000000000000000000000000000000800000000000000000020000002000000000000000000000000000002000000000000000000000000000000000000000000000000000000001000000000000000000000000000000000200020000000000000000000800010000008000000000000000000000400000000000000000000000000000000000000000000000000000000000000000000000000000000000000000000000000000000000000000000000000000000000000000000000000000000000000000000000000000000000000000000020000000000000000000000000000000000000000000000000000000000000000000",
      "type": "0x0",
      "transactionHash": "0x486cae8b2d538607df873f116e090ac897c713e86f8d1c2f47c357b0ca9a5c15",
      "transactionIndex": "0x0",
      "blockHash": "0x24263b6da85cfce731c1e4f8998a4b9f15a7473bc62bee12ea78f89419c2a072",
      "blockNumber": "0x1ede66",
      "gasUsed": "0x3c827",
      "effectiveGasPrice": "0x826299e00",
      "from": "0x385f472d28796f1c5138a14f2005608317578739",
      "to": null,
      "contractAddress": "0x15e6e7d790255096f34e7119cbd6b9886cd85e18"
    },
    {
      "status": "0x1",
      "cumulativeGasUsed": "0xb9b8",
      "logs": [
        {
          "address": "0x15e6e7d790255096f34e7119cbd6b9886cd85e18",
          "topics": [
            "0x93944d1916457afa794f5da38d669341816983c303bca958cc0003bd948627cd"
          ],
          "data": "0x5445535400000000000000000000000000000000000000000000000000000000000000000000000000000000385f472d28796f1c5138a14f2005608317578739",
          "blockHash": "0x3b9633c8368bc369fed9211fa63bd9c2fd97ad112d0d0240cf75bdae2f67a0b2",
          "blockNumber": "0x1ede67",
          "transactionHash": "0x8002d312d6d6f0c16e4eddabd66f15e55cc42f812d9b256cccc19bd84fe06e9a",
          "transactionIndex": "0x0",
          "logIndex": "0x0",
          "removed": false
        }
      ],
      "logsBloom": "0x00000000000000000000000000000000000000000000000000000000000000000000020000002000000000000000000000000000000000000000000000000000000000000020000000000000000000000000000080000000000000000000000000000000000000000000000000000000010000000000000000000000000000000000000000000000000000000000000000000000000000000000000000000000100000000000000000000000000000000000000000000000000000000000000000000000000000000000000000000000000000000000000000000000000000000000000000000000000000000000000000000000000000000000000000000000",
      "type": "0x0",
      "transactionHash": "0x8002d312d6d6f0c16e4eddabd66f15e55cc42f812d9b256cccc19bd84fe06e9a",
      "transactionIndex": "0x0",
      "blockHash": "0x3b9633c8368bc369fed9211fa63bd9c2fd97ad112d0d0240cf75bdae2f67a0b2",
      "blockNumber": "0x1ede67",
      "gasUsed": "0xb9b8",
      "effectiveGasPrice": "0x826299e00",
      "from": "0x385f472d28796f1c5138a14f2005608317578739",
      "to": "0x15e6e7d790255096f34e7119cbd6b9886cd85e18",
      "contractAddress": null
    }
  ],
  "libraries": [],
  "pending": [],
  "returns": {},
  "timestamp": 1739267107,
  "chain": 1114,
  "commit": "140f39e"
}