{
  "transactions": [
    {
      "hash": "0x8c8281bb25a69372055a1d61d25f5f517fec3f2b15ba9791992619ee1da6aecf",
      "transactionType": "CREATE",
      "contractName": "Registry",
      "contractAddress": "0xc9de5819f909f909efb962e76000b5f22e93b36d",
      "function": null,
      "arguments": null,
      "transaction": {
        "from": "0x385f472d28796f1c5138a14f2005608317578739",
        "gas": "0x5bb02",
        "value": "0x0",
        "input": "0x608080604052346071573315605e575f8054336001600160a01b0319821681178355916001600160a01b03909116907f8be0079c531659141344cd1fd0a4f28419497f9722a3daafe3b4186f6b6457e09080a36103ce90816100768239f35b631e4fbdf760e01b5f525f60045260245ffd5b5f80fdfe60806040526004361015610011575f80fd5b5f3560e01c806304433bbc1461020d578063534e785c146101c8578063715018a6146101715780638da5cb5b1461014a57806392a296c9146100e85763f2fde38b1461005b575f80fd5b346100e45760203660031901126100e4576004356001600160a01b038116908190036100e457610089610372565b80156100d1575f80546001600160a01b03198116831782556001600160a01b0316907f8be0079c531659141344cd1fd0a4f28419497f9722a3daafe3b4186f6b6457e09080a3005b631e4fbdf760e01b5f525f60045260245ffd5b5f80fd5b346100e45760203660031901126100e45760043567ffffffffffffffff81116100e45761011b60209136906004016102e0565b8160405191805191829101835e600190820190815281900382019020546040516001600160a01b039091168152f35b346100e4575f3660031901126100e4575f546040516001600160a01b039091168152602090f35b346100e4575f3660031901126100e457610189610372565b5f80546001600160a01b0319811682556001600160a01b03167f8be0079c531659141344cd1fd0a4f28419497f9722a3daafe3b4186f6b6457e08280a3005b346100e45760403660031901126100e45760043567ffffffffffffffff81116100e4576101f99036906004016102e0565b5061020261035c565b5061020b610372565b005b346100e45760203660031901126100e45760043567ffffffffffffffff81116100e45761023e9036906004016102e0565b6040519080519160208201928084835e60019082019081528190036020019020546001600160a01b03161561029b5760209160405191518091835e600190820190815281900382019020546040516001600160a01b039091168152f35b60405162461bcd60e51b815260206004820152601d60248201527f5265676973747279203a3a2041646472657373206e6f7420666f756e640000006044820152606490fd5b81601f820112156100e45780359067ffffffffffffffff82116103485760405192601f8301601f19908116603f0116840167ffffffffffffffff81118582101761034857604052828452602083830101116100e457815f926020809301838601378301015290565b634e487b7160e01b5f52604160045260245ffd5b602435906001600160a01b03821682036100e457565b5f546001600160a01b0316330361038557565b63118cdaa760e01b5f523360045260245ffdfea26469706673582212204026b9acc18c63450e5399b5f9831083ea0c916177677cb8dfdb141a7f8e0b5564736f6c634300081c0033",
        "nonce": "0x4",
        "chainId": "0x45a"
      },
      "additionalContracts": [],
      "isFixedGasLimit": false
    },
    {
      "hash": "0xe58854cbac1a3c13a607d28780bd677f645e3fc76aa6aff0785afe5f236c6e14",
      "transactionType": "CALL",
      "contractName": "Registry",
      "contractAddress": "0xc9de5819f909f909efb962e76000b5f22e93b36d",
      "function": "setContractAddress(string,address)",
      "arguments": [
        "TEST",
        "0x385F472D28796F1c5138A14f2005608317578739"
      ],
      "transaction": {
        "from": "0x385f472d28796f1c5138a14f2005608317578739",
        "to": "0xc9de5819f909f909efb962e76000b5f22e93b36d",
        "gas": "0x84aa",
        "value": "0x0",
        "input": "0x534e785c0000000000000000000000000000000000000000000000000000000000000040000000000000000000000000385f472d28796f1c5138a14f200560831757873900000000000000000000000000000000000000000000000000000000000000045445535400000000000000000000000000000000000000000000000000000000",
        "nonce": "0x5",
        "chainId": "0x45a"
      },
      "additionalContracts": [],
      "isFixedGasLimit": false
    }
  ],
  "receipts": [
    {
      "status": "0x1",
      "cumulativeGasUsed": "0x46878",
      "logs": [
        {
          "address": "0xc9de5819f909f909efb962e76000b5f22e93b36d",
          "topics": [
            "0x8be0079c531659141344cd1fd0a4f28419497f9722a3daafe3b4186f6b6457e0",
            "0x0000000000000000000000000000000000000000000000000000000000000000",
            "0x000000000000000000000000385f472d28796f1c5138a14f2005608317578739"
          ],
          "data": "0x",
          "blockHash": "0x345c46436faf984b80ddecf116ca41993e2273b9e56f57b1f9ac0a7c5018dae4",
          "blockNumber": "0x1eddd7",
          "transactionHash": "0x8c8281bb25a69372055a1d61d25f5f517fec3f2b15ba9791992619ee1da6aecf",
          "transactionIndex": "0x0",
          "logIndex": "0x0",
          "removed": false
        }
      ],
      "logsBloom": "0x00000000000000000000000000000000000000000000000000800000000000000000000000000000000000000000000000000000002000000000000000000000000000000000000000000000000080000001000000000000000000000000000000000200020000000000000000000800000000008000000000000000000000400000000000000000000000000000000000000000000000000000000000000000000000000000000000000000000000000000000000000000000000000000000000000000000000000000000000000000000000000000000000000000000020000000000000000000000004800000000000000000000000000000000000000000",
      "type": "0x0",
      "transactionHash": "0x8c8281bb25a69372055a1d61d25f5f517fec3f2b15ba9791992619ee1da6aecf",
      "transactionIndex": "0x0",
      "blockHash": "0x345c46436faf984b80ddecf116ca41993e2273b9e56f57b1f9ac0a7c5018dae4",
      "blockNumber": "0x1eddd7",
      "gasUsed": "0x46878",
      "effectiveGasPrice": "0x826299e00",
      "from": "0x385f472d28796f1c5138a14f2005608317578739",
      "to": null,
      "contractAddress": "0xc9de5819f909f909efb962e76000b5f22e93b36d"
    },
    {
      "status": "0x1",
      "cumulativeGasUsed": "0x600d",
      "logs": [],
      "logsBloom": "0x00000000000000000000000000000000000000000000000000000000000000000000000000000000000000000000000000000000000000000000000000000000000000000000000000000000000000000000000000000000000000000000000000000000000000000000000000000000000000000000000000000000000000000000000000000000000000000000000000000000000000000000000000000000000000000000000000000000000000000000000000000000000000000000000000000000000000000000000000000000000000000000000000000000000000000000000000000000000000000000000000000000000000000000000000000000",
      "type": "0x0",
      "transactionHash": "0xe58854cbac1a3c13a607d28780bd677f645e3fc76aa6aff0785afe5f236c6e14",
      "transactionIndex": "0x0",
      "blockHash": "0x6ace62ac9f492a68b9cb1d01a66a1791ee67c62ac7b37a69f1f19eed0da4f8f7",
      "blockNumber": "0x1eddd8",
      "gasUsed": "0x600d",
      "effectiveGasPrice": "0x826299e00",
      "from": "0x385f472d28796f1c5138a14f2005608317578739",
      "to": "0xc9de5819f909f909efb962e76000b5f22e93b36d",
      "contractAddress": null
    }
  ],
  "libraries": [],
  "pending": [],
  "returns": {},
  "timestamp": 1739266679,
  "chain": 1114,
  "commit": "140f39e"
}