{
  "transactions": [
    {
      "hash": "0x8768fe6532a169fd7b4594faf1303104aab50f7478359f44b7740d04d17d0aa2",
      "transactionType": "CREATE",
      "contractName": "Registry",
      "contractAddress": "0xe3452872add08417b7f5bfa2e380fc8773893d22",
      "function": null,
      "arguments": null,
      "transaction": {
        "from": "0xae7b099920401df166376f4b5dc5e6edffcb8468",
        "gas": "0x55992",
        "value": "0x0",
        "input": "0x608080604052346071573315605e575f8054336001600160a01b0319821681178355916001600160a01b03909116907f8be0079c531659141344cd1fd0a4f28419497f9722a3daafe3b4186f6b6457e09080a361037590816100768239f35b631e4fbdf760e01b5f525f60045260245ffd5b5f80fdfe6080806040526004361015610012575f80fd5b5f3560e01c9081630d2020dd1461028557508063715018a61461022e5780637ef50298146101fc5780638da5cb5b146101d5578063e001f841146100eb5763f2fde38b1461005e575f80fd5b346100e75760203660031901126100e7576004356001600160a01b038116908190036100e75761008c610319565b80156100d4575f80546001600160a01b03198116831782556001600160a01b0316907f8be0079c531659141344cd1fd0a4f28419497f9722a3daafe3b4186f6b6457e09080a3005b631e4fbdf760e01b5f525f60045260245ffd5b5f80fd5b346100e75760403660031901126100e7576004356024356001600160a01b038116908190036100e75761011c610319565b815f52600160205260405f20816bffffffffffffffffffffffff60a01b825416179055604051916020830190815260208352604083019183831067ffffffffffffffff8411176101c1577f88e329cc57342d29142961eef2f362dbac392a0e06bc14a7e6a059e9dc245f9d9360a0918460405260408552815180948160808501528484015e5f8385840101526060820152603f1992601f8019910116810103010190a1005b634e487b7160e01b5f52604160045260245ffd5b346100e7575f3660031901126100e7575f546040516001600160a01b039091168152602090f35b346100e75760203660031901126100e7576004355f526001602052602060018060a01b0360405f205416604051908152f35b346100e7575f3660031901126100e757610246610319565b5f80546001600160a01b0319811682556001600160a01b03167f8be0079c531659141344cd1fd0a4f28419497f9722a3daafe3b4186f6b6457e08280a3005b346100e75760203660031901126100e7576004355f818152600160205260409020549091906001600160a01b0316156102d757505f526001602052602060018060a01b0360405f205416604051908152f35b62461bcd60e51b815260206004820152601d60248201527f5265676973747279203a3a2041646472657373206e6f7420666f756e640000006044820152606490fd5b5f546001600160a01b0316330361032c57565b63118cdaa760e01b5f523360045260245ffdfea2646970667358221220188e04a726184ecd17d0f42f3b291bd546d807697b7a05543df98c5744604faf64736f6c634300081c0033",
        "nonce": "0x12",
        "chainId": "0x45a"
      },
      "additionalContracts": [],
      "isFixedGasLimit": false
    },
    {
      "hash": "0x2b8943317761e08b563fe0fbd0a26a3a567d198bdcd343902fe2225292605300",
      "transactionType": "CREATE",
      "contractName": "CounterGame",
      "contractAddress": "0xe8d0ba0128011b94fc8fdbe103943f5c604b3e47",
      "function": null,
      "arguments": null,
      "transaction": {
        "from": "0xae7b099920401df166376f4b5dc5e6edffcb8468",
        "gas": "0x651fb",
        "value": "0x0",
        "input": "0x6080806040523460765733156063575f8054336001600160a01b0319821681178355916001600160a01b03909116907f8be0079c531659141344cd1fd0a4f28419497f9722a3daafe3b4186f6b6457e09080a360076004556103f1908161007b8239f35b631e4fbdf760e01b5f525f60045260245ffd5b5f80fdfe6080806040526004361015610012575f80fd5b5f3560e01c90816352e9a640146102c357508063715018a61461026c5780637b103999146102445780638a19c8bc146102275780638da5cb5b14610200578063a91ee0dc146101b6578063bc94ce3d14610199578063c03c30031461017b578063c732d2011461015e578063f2fde38b146100d55763f50ddbc714610095575f80fd5b346100d15760203660031901126100d1576004356001600160a01b038116908190036100d1575f526003602052602060405f2054604051908152f35b5f80fd5b346100d15760203660031901126100d1576004356001600160a01b038116908190036100d157610103610395565b801561014b575f80546001600160a01b03198116831782556001600160a01b0316907f8be0079c531659141344cd1fd0a4f28419497f9722a3daafe3b4186f6b6457e09080a3005b631e4fbdf760e01b5f525f60045260245ffd5b346100d1575f3660031901126100d1576020600654604051908152f35b346100d15760203660031901126100d1576101976004356102f1565b005b346100d1575f3660031901126100d1576020600454604051908152f35b346100d15760203660031901126100d1576004356001600160a01b038116908190036100d1576101e4610395565b6bffffffffffffffffffffffff60a01b60015416176001555f80f35b346100d1575f3660031901126100d1575f546040516001600160a01b039091168152602090f35b346100d1575f3660031901126100d1576020600554604051908152f35b346100d1575f3660031901126100d1576001546040516001600160a01b039091168152602090f35b346100d1575f3660031901126100d157610284610395565b5f80546001600160a01b0319811682556001600160a01b03167f8be0079c531659141344cd1fd0a4f28419497f9722a3daafe3b4186f6b6457e08280a3005b346100d15760203660031901126100d1576020906004355f526002825260018060a01b0360405f2054168152f35b60045490818113610391576006548181019182125f821290801582169115161761035e57828212610374575013610372575f6006556005545f52600260205260405f20336bffffffffffffffffffffffff60a01b8254161790556005545f19811461035e57600101600555565b634e487b7160e01b5f52601160045260245ffd5b565b81810392505f909112801582841316918312161761035e57600655565b5050565b5f546001600160a01b031633036103a857565b63118cdaa760e01b5f523360045260245ffdfea26469706673582212203b4066e9b5284a4a66a1b0d3205ad82c31a71538534b49f748fdb47597e4783e64736f6c634300081c0033",
        "nonce": "0x13",
        "chainId": "0x45a"
      },
      "additionalContracts": [],
      "isFixedGasLimit": false
    },
    {
      "hash": "0x8448ff9b1a3dff28dbc2c4c9f913c599d4f22e605dc8102322e2c402baf57c0d",
      "transactionType": "CREATE",
      "contractName": "CounterToken",
      "contractAddress": "0x9b293c05fab48cfd2db73f3ed1a6012d14d75279",
      "function": null,
      "arguments": null,
      "transaction": {
        "from": "0xae7b099920401df166376f4b5dc5e6edffcb8468",
        "gas": "0xb56b1",
        "value": "0x0",
        "input": "0x60806040523461037757604080519081016001600160401b0381118282101761028a576040908152600d82526c21b7bab73a32b9102a37b5b2b760991b602083015280519081016001600160401b0381118282101761028a57604052600781526621b7bab73a32b960c91b602082015281516001600160401b03811161028a57600354600181811c9116801561036d575b602082101461026c57601f811161030a575b50602092601f82116001146102a957928192935f9261029e575b50508160011b915f199060031b1c1916176003555b80516001600160401b03811161028a57600454600181811c91168015610280575b602082101461026c57601f8111610209575b50602091601f82116001146101a9579181925f9261019e575b50508160011b915f199060031b1c1916176004555b331561018b5760058054336001600160a01b03198216811790925560405191906001600160a01b03167f8be0079c531659141344cd1fd0a4f28419497f9722a3daafe3b4186f6b6457e05f80a36107df908161037c8239f35b631e4fbdf760e01b5f525f60045260245ffd5b015190505f8061011d565b601f1982169260045f52805f20915f5b8581106101f1575083600195106101d9575b505050811b01600455610132565b01515f1960f88460031b161c191690555f80806101cb565b919260206001819286850151815501940192016101b9565b60045f527f8a35acfbc15ff81a39ae7d344fd709f28e8600b4aa8c65c6b64bfe7fe36bd19b601f830160051c81019160208410610262575b601f0160051c01905b8181106102575750610104565b5f815560010161024a565b9091508190610241565b634e487b7160e01b5f52602260045260245ffd5b90607f16906100f2565b634e487b7160e01b5f52604160045260245ffd5b015190505f806100bc565b601f1982169360035f52805f20915f5b8681106102f257508360019596106102da575b505050811b016003556100d1565b01515f1960f88460031b161c191690555f80806102cc565b919260206001819286850151815501940192016102b9565b60035f527fc2575a0e9e593c00f959f8c92f12db2869c3395a3b0502d05e2516446f71f85b601f830160051c81019160208410610363575b601f0160051c01905b81811061035857506100a2565b5f815560010161034b565b9091508190610342565b90607f1690610090565b5f80fdfe6080806040526004361015610012575f80fd5b5f3560e01c90816306fdde03146105b357508063095ea7b31461053157806318160ddd1461051457806323b872dd14610435578063313ce5671461041a57806340c10f191461036e57806370a0823114610337578063715018a6146102dc5780638da5cb5b146102b457806395d89b4114610199578063a9059cbb14610168578063dd62ed3e146101185763f2fde38b146100ab575f80fd5b34610114576020366003190112610114576100c46106ac565b6100cc610782565b600580546001600160a01b039283166001600160a01b0319821681179092559091167f8be0079c531659141344cd1fd0a4f28419497f9722a3daafe3b4186f6b6457e05f80a3005b5f80fd5b34610114576040366003190112610114576101316106ac565b6101396106c2565b6001600160a01b039182165f908152600160209081526040808320949093168252928352819020549051908152f35b346101145760403660031901126101145761018e6101846106ac565b60243590336106d8565b602060405160018152f35b34610114575f366003190112610114576040515f6004548060011c906001811680156102aa575b6020831081146102965782855290811561027a5750600114610225575b50819003601f01601f191681019067ffffffffffffffff8211818310176102115761020d82918260405282610682565b0390f35b634e487b7160e01b5f52604160045260245ffd5b905060045f527f8a35acfbc15ff81a39ae7d344fd709f28e8600b4aa8c65c6b64bfe7fe36bd19b5f905b828210610264575060209150820101826101dd565b600181602092548385880101520191019061024f565b90506020925060ff191682840152151560051b820101826101dd565b634e487b7160e01b5f52602260045260245ffd5b91607f16916101c0565b34610114575f366003190112610114576005546040516001600160a01b039091168152602090f35b34610114575f366003190112610114576102f4610782565b600580546001600160a01b031981169091555f906001600160a01b03167f8be0079c531659141344cd1fd0a4f28419497f9722a3daafe3b4186f6b6457e08280a3005b34610114576020366003190112610114576001600160a01b036103586106ac565b165f525f602052602060405f2054604051908152f35b34610114576040366003190112610114576103876106ac565b60243590610393610782565b6001600160a01b031690811561040757600254908082018092116103f35760207fddf252ad1be2c89b69c2b068fc378daa952ba7f163c4a11628f55a4df523b3ef915f9360025584845283825260408420818154019055604051908152a3005b634e487b7160e01b5f52601160045260245ffd5b63ec442f0560e01b5f525f60045260245ffd5b34610114575f36600319011261011457602060405160128152f35b346101145760603660031901126101145761044e6106ac565b6104566106c2565b6001600160a01b0382165f818152600160209081526040808320338452909152902054909260443592915f198110610494575b5061018e93506106d8565b8381106104f95784156104e65733156104d35761018e945f52600160205260405f2060018060a01b0333165f526020528360405f209103905584610489565b634a1406b160e11b5f525f60045260245ffd5b63e602df0560e01b5f525f60045260245ffd5b8390637dc7a0d960e11b5f523360045260245260445260645ffd5b34610114575f366003190112610114576020600254604051908152f35b346101145760403660031901126101145761054a6106ac565b6024359033156104e6576001600160a01b03169081156104d357335f52600160205260405f20825f526020528060405f20556040519081527f8c5be1e5ebec7d5bd14f71427d1e84f3dd0314c0f7b2291e5b200ac8c7c3b92560203392a3602060405160018152f35b34610114575f366003190112610114575f6003548060011c90600181168015610678575b6020831081146102965782855290811561027a57506001146106235750819003601f01601f191681019067ffffffffffffffff8211818310176102115761020d82918260405282610682565b905060035f527fc2575a0e9e593c00f959f8c92f12db2869c3395a3b0502d05e2516446f71f85b5f905b828210610662575060209150820101826101dd565b600181602092548385880101520191019061064d565b91607f16916105d7565b602060409281835280519182918282860152018484015e5f828201840152601f01601f1916010190565b600435906001600160a01b038216820361011457565b602435906001600160a01b038216820361011457565b6001600160a01b031690811561076f576001600160a01b031691821561040757815f525f60205260405f205481811061075657817fddf252ad1be2c89b69c2b068fc378daa952ba7f163c4a11628f55a4df523b3ef92602092855f525f84520360405f2055845f525f825260405f20818154019055604051908152a3565b8263391434e360e21b5f5260045260245260445260645ffd5b634b637e8f60e11b5f525f60045260245ffd5b6005546001600160a01b0316330361079657565b63118cdaa760e01b5f523360045260245ffdfea26469706673582212200b8913de9036168fedc9039e1ccd15ac345712e5527400ca74b94deb78b5515564736f6c634300081c0033",
        "nonce": "0x14",
        "chainId": "0x45a"
      },
      "additionalContracts": [],
      "isFixedGasLimit": false
    },
    {
      "hash": "0x163f64caa5142672bde9427aa8537f99aa6adcbda77318079323893c419d98f9",
      "transactionType": "CALL",
      "contractName": "Registry",
      "contractAddress": "0xe3452872add08417b7f5bfa2e380fc8773893d22",
      "function": "setContractAddress(bytes32,address)",
      "arguments": [
        "0x5265676973747279000000000000000000000000000000000000000000000000",
        "0xe3452872ADd08417B7F5BFa2E380fc8773893d22"
      ],
      "transaction": {
        "from": "0xae7b099920401df166376f4b5dc5e6edffcb8468",
        "to": "0xe3452872add08417b7f5bfa2e380fc8773893d22",
        "gas": "0x104a9",
        "value": "0x0",
        "input": "0xe001f8415265676973747279000000000000000000000000000000000000000000000000000000000000000000000000e3452872add08417b7f5bfa2e380fc8773893d22",
        "nonce": "0x15",
        "chainId": "0x45a"
      },
      "additionalContracts": [],
      "isFixedGasLimit": false
    },
    {
      "hash": null,
      "transactionType": "CALL",
      "contractName": "Registry",
      "contractAddress": "0xe3452872add08417b7f5bfa2e380fc8773893d22",
      "function": "setContractAddress(bytes32,address)",
      "arguments": [
        "0x436f756e74657247616d65000000000000000000000000000000000000000000",
        "0xe8D0Ba0128011b94fc8fdBe103943f5C604b3E47"
      ],
      "transaction": {
        "from": "0xae7b099920401df166376f4b5dc5e6edffcb8468",
        "to": "0xe3452872add08417b7f5bfa2e380fc8773893d22",
        "gas": "0x11433",
        "value": "0x0",
        "input": "0xe001f841436f756e74657247616d65000000000000000000000000000000000000000000000000000000000000000000e8d0ba0128011b94fc8fdbe103943f5c604b3e47",
        "nonce": "0x16",
        "chainId": "0x45a"
      },
      "additionalContracts": [],
      "isFixedGasLimit": false
    },
    {
      "hash": null,
      "transactionType": "CALL",
      "contractName": "Registry",
      "contractAddress": "0xe3452872add08417b7f5bfa2e380fc8773893d22",
      "function": "setContractAddress(bytes32,address)",
      "arguments": [
        "0x436f756e746572546f6b656e0000000000000000000000000000000000000000",
        "0x9b293c05fAB48CFd2dB73f3Ed1a6012d14d75279"
      ],
      "transaction": {
        "from": "0xae7b099920401df166376f4b5dc5e6edffcb8468",
        "to": "0xe3452872add08417b7f5bfa2e380fc8773893d22",
        "gas": "0x104eb",
        "value": "0x0",
        "input": "0xe001f841436f756e746572546f6b656e00000000000000000000000000000000000000000000000000000000000000009b293c05fab48cfd2db73f3ed1a6012d14d75279",
        "nonce": "0x17",
        "chainId": "0x45a"
      },
      "additionalContracts": [],
      "isFixedGasLimit": false
    },
    {
      "hash": null,
      "transactionType": "CALL",
      "contractName": "CounterToken",
      "contractAddress": "0x9b293c05fab48cfd2db73f3ed1a6012d14d75279",
      "function": "transferOwnership(address)",
      "arguments": [
        "0xe8D0Ba0128011b94fc8fdBe103943f5C604b3E47"
      ],
      "transaction": {
        "from": "0xae7b099920401df166376f4b5dc5e6edffcb8468",
        "to": "0x9b293c05fab48cfd2db73f3ed1a6012d14d75279",
        "gas": "0xa3a0",
        "value": "0x0",
        "input": "0xf2fde38b000000000000000000000000e8d0ba0128011b94fc8fdbe103943f5c604b3e47",
        "nonce": "0x18",
        "chainId": "0x45a"
      },
      "additionalContracts": [],
      "isFixedGasLimit": false
    },
    {
      "hash": null,
      "transactionType": "CALL",
      "contractName": "CounterGame",
      "contractAddress": "0xe8d0ba0128011b94fc8fdbe103943f5c604b3e47",
      "function": "setRegistry(address)",
      "arguments": [
        "0xe3452872ADd08417B7F5BFa2E380fc8773893d22"
      ],
      "transaction": {
        "from": "0xae7b099920401df166376f4b5dc5e6edffcb8468",
        "to": "0xe8d0ba0128011b94fc8fdbe103943f5c604b3e47",
        "gas": "0xf841",
        "value": "0x0",
        "input": "0xa91ee0dc000000000000000000000000e3452872add08417b7f5bfa2e380fc8773893d22",
        "nonce": "0x19",
        "chainId": "0x45a"
      },
      "additionalContracts": [],
      "isFixedGasLimit": false
    }
  ],
  "receipts": [
    {
      "status": "0x1",
      "cumulativeGasUsed": "0x41d84",
      "logs": [
        {
          "address": "0xe3452872add08417b7f5bfa2e380fc8773893d22",
          "topics": [
            "0x8be0079c531659141344cd1fd0a4f28419497f9722a3daafe3b4186f6b6457e0",
            "0x0000000000000000000000000000000000000000000000000000000000000000",
            "0x000000000000000000000000ae7b099920401df166376f4b5dc5e6edffcb8468"
          ],
          "data": "0x",
          "blockHash": "0x245077b6a7c40931b6b182ff7f426f39545946558fb1f30d53e945fa0f5704f9",
          "blockNumber": "0x261032",
          "transactionHash": "0x8768fe6532a169fd7b4594faf1303104aab50f7478359f44b7740d04d17d0aa2",
          "transactionIndex": "0x0",
          "logIndex": "0x0",
          "removed": false
        }
      ],
      "logsBloom": "0x00000000000000400000000000000000001000000000000000800000000000000000000000000000000000000000000000000000000000000000000000000000000000000000000000000000000000000001000000000000000000000000000000000000020000000000000000000800000000000000000000000000000000400000000000000000000000000000000000000000000000000004000000000000000000000000000800000000000000000000000000000000000000000000000000000000000000000000000000000000000000000000004000000000000020000000000000000000000000000000000000000000000000000020000000000000",
      "type": "0x0",
      "transactionHash": "0x8768fe6532a169fd7b4594faf1303104aab50f7478359f44b7740d04d17d0aa2",
      "transactionIndex": "0x0",
      "blockHash": "0x245077b6a7c40931b6b182ff7f426f39545946558fb1f30d53e945fa0f5704f9",
      "blockNumber": "0x261032",
      "gasUsed": "0x41d84",
      "effectiveGasPrice": "0x826299e00",
      "from": "0xae7b099920401df166376f4b5dc5e6edffcb8468",
      "to": null,
      "contractAddress": "0xe3452872add08417b7f5bfa2e380fc8773893d22"
    },
    {
      "status": "0x1",
      "cumulativeGasUsed": "0x4dc9a",
      "logs": [
        {
          "address": "0xe8d0ba0128011b94fc8fdbe103943f5c604b3e47",
          "topics": [
            "0x8be0079c531659141344cd1fd0a4f28419497f9722a3daafe3b4186f6b6457e0",
            "0x0000000000000000000000000000000000000000000000000000000000000000",
            "0x000000000000000000000000ae7b099920401df166376f4b5dc5e6edffcb8468"
          ],
          "data": "0x",
          "blockHash": "0xa2d3d37eca926a21cbdf745c7a81db7ef1cc795113442a572869f3508ceb6819",
          "blockNumber": "0x261033",
          "transactionHash": "0x2b8943317761e08b563fe0fbd0a26a3a567d198bdcd343902fe2225292605300",
          "transactionIndex": "0x0",
          "logIndex": "0x0",
          "removed": false
        }
      ],
      "logsBloom": "0x00000000000000000000000000000000001000000000000000800000000000000000000000000000000000000000000000000000000000000000000000000000000000000000000000000000000000000001000000000000000000000000000000001000020000000000000000000800000000000000000000000000000000400000000000000000000000000000000000000000000000000004000000000000000000000000000000000000000000000000000000000000000000000000000000000000000000000000000002000000000000000000000000000000000020000000040000000000000000000000000000000000000000000020000000000000",
      "type": "0x0",
      "transactionHash": "0x2b8943317761e08b563fe0fbd0a26a3a567d198bdcd343902fe2225292605300",
      "transactionIndex": "0x0",
      "blockHash": "0xa2d3d37eca926a21cbdf745c7a81db7ef1cc795113442a572869f3508ceb6819",
      "blockNumber": "0x261033",
      "gasUsed": "0x4dc9a",
      "effectiveGasPrice": "0x826299e00",
      "from": "0xae7b099920401df166376f4b5dc5e6edffcb8468",
      "to": null,
      "contractAddress": "0xe8d0ba0128011b94fc8fdbe103943f5c604b3e47"
    },
    {
      "status": "0x1",
      "cumulativeGasUsed": "0x8b8d7",
      "logs": [
        {
          "address": "0x9b293c05fab48cfd2db73f3ed1a6012d14d75279",
          "topics": [
            "0x8be0079c531659141344cd1fd0a4f28419497f9722a3daafe3b4186f6b6457e0",
            "0x0000000000000000000000000000000000000000000000000000000000000000",
            "0x000000000000000000000000ae7b099920401df166376f4b5dc5e6edffcb8468"
          ],
          "data": "0x",
          "blockHash": "0x08727e575aa86f572a438704e55ce15958acb5335474e1ce6ee50dd1ccd63c0a",
          "blockNumber": "0x261034",
          "transactionHash": "0x8448ff9b1a3dff28dbc2c4c9f913c599d4f22e605dc8102322e2c402baf57c0d",
          "transactionIndex": "0x0",
          "logIndex": "0x0",
          "removed": false
        }
      ],
      "logsBloom": "0x00000000008000000000000000000000001000000000000000800000000000000000000000000000000000000004000000000000000000000000000000000000000000000000000000000000000000000001000000000000000000000000000000000000020000000000000000000800000000000000000000000000000000400000000000000000000000000000000000000000000000000004000000000000000000000000000000000000000000000000000000000000000000000400000000000000000000000000000000000000000000000000000000000000000020000000000000000000000000000000000000000000000000000020000000000000",
      "type": "0x0",
      "transactionHash": "0x8448ff9b1a3dff28dbc2c4c9f913c599d4f22e605dc8102322e2c402baf57c0d",
      "transactionIndex": "0x0",
      "blockHash": "0x08727e575aa86f572a438704e55ce15958acb5335474e1ce6ee50dd1ccd63c0a",
      "blockNumber": "0x261034",
      "gasUsed": "0x8b8d7",
      "effectiveGasPrice": "0x826299e00",
      "from": "0xae7b099920401df166376f4b5dc5e6edffcb8468",
      "to": null,
      "contractAddress": "0x9b293c05fab48cfd2db73f3ed1a6012d14d75279"
    }
  ],
  "libraries": [],
  "pending": [],
  "returns": {},
  "timestamp": 1740682718,
  "chain": 1114,
  "commit": "a12b3d8"
}