{
  "transactions": [
    {
      "hash": "0xa170d7c629b70bb388317c410dbe4bb51b1bd3aa8565596eed4d0ceefce3a5ad",
      "transactionType": "CREATE",
      "contractName": "Registry",
      "contractAddress": "0xc5872820758cb0a1b12fb9102cc0e5cf2f3807a3",
      "function": null,
      "arguments": null,
      "transaction": {
        "from": "0x385f472d28796f1c5138a14f2005608317578739",
        "gas": "0x55992",
        "value": "0x0",
        "input": "0x608080604052346071573315605e575f8054336001600160a01b0319821681178355916001600160a01b03909116907f8be0079c531659141344cd1fd0a4f28419497f9722a3daafe3b4186f6b6457e09080a361037590816100768239f35b631e4fbdf760e01b5f525f60045260245ffd5b5f80fdfe6080806040526004361015610012575f80fd5b5f3560e01c9081630d2020dd1461028557508063715018a61461022e5780637ef50298146101fc5780638da5cb5b146101d5578063e001f841146100eb5763f2fde38b1461005e575f80fd5b346100e75760203660031901126100e7576004356001600160a01b038116908190036100e75761008c610319565b80156100d4575f80546001600160a01b03198116831782556001600160a01b0316907f8be0079c531659141344cd1fd0a4f28419497f9722a3daafe3b4186f6b6457e09080a3005b631e4fbdf760e01b5f525f60045260245ffd5b5f80fd5b346100e75760403660031901126100e7576004356024356001600160a01b038116908190036100e75761011c610319565b815f52600160205260405f20816bffffffffffffffffffffffff60a01b825416179055604051916020830190815260208352604083019183831067ffffffffffffffff8411176101c1577f88e329cc57342d29142961eef2f362dbac392a0e06bc14a7e6a059e9dc245f9d9360a0918460405260408552815180948160808501528484015e5f8385840101526060820152603f1992601f8019910116810103010190a1005b634e487b7160e01b5f52604160045260245ffd5b346100e7575f3660031901126100e7575f546040516001600160a01b039091168152602090f35b346100e75760203660031901126100e7576004355f526001602052602060018060a01b0360405f205416604051908152f35b346100e7575f3660031901126100e757610246610319565b5f80546001600160a01b0319811682556001600160a01b03167f8be0079c531659141344cd1fd0a4f28419497f9722a3daafe3b4186f6b6457e08280a3005b346100e75760203660031901126100e7576004355f818152600160205260409020549091906001600160a01b0316156102d757505f526001602052602060018060a01b0360405f205416604051908152f35b62461bcd60e51b815260206004820152601d60248201527f5265676973747279203a3a2041646472657373206e6f7420666f756e640000006044820152606490fd5b5f546001600160a01b0316330361032c57565b63118cdaa760e01b5f523360045260245ffdfea2646970667358221220c3fc233d4a664f762abf7724d2476b9ccdd0bf744584dadeb9df7c8dcbdfaf9f64736f6c634300081c0033",
        "nonce": "0xa",
        "chainId": "0x45a"
      },
      "additionalContracts": [],
      "isFixedGasLimit": false
    },
    {
      "hash": "0xee4490f5f51c52b2b87f5f0ccb0c6d221c18f065d9eca9e181df12bdfaaa7383",
      "transactionType": "CALL",
      "contractName": "Registry",
      "contractAddress": "0xc5872820758cb0a1b12fb9102cc0e5cf2f3807a3",
      "function": "setContractAddress(bytes32,address)",
      "arguments": [
        "0x5445535400000000000000000000000000000000000000000000000000000000",
        "0x385F472D28796F1c5138A14f2005608317578739"
      ],
      "transaction": {
        "from": "0x385f472d28796f1c5138a14f2005608317578739",
        "to": "0xc5872820758cb0a1b12fb9102cc0e5cf2f3807a3",
        "gas": "0x10466",
        "value": "0x0",
        "input": "0xe001f8415445535400000000000000000000000000000000000000000000000000000000000000000000000000000000385f472d28796f1c5138a14f2005608317578739",
        "nonce": "0xb",
        "chainId": "0x45a"
      },
      "additionalContracts": [],
      "isFixedGasLimit": false
    }
  ],
  "receipts": [
    {
      "status": "0x1",
      "cumulativeGasUsed": "0x41d84",
      "logs": [
        {
          "address": "0xc5872820758cb0a1b12fb9102cc0e5cf2f3807a3",
          "topics": [
            "0x8be0079c531659141344cd1fd0a4f28419497f9722a3daafe3b4186f6b6457e0",
            "0x0000000000000000000000000000000000000000000000000000000000000000",
            "0x000000000000000000000000385f472d28796f1c5138a14f2005608317578739"
          ],
          "data": "0x",
          "blockHash": "0xa270471793f5308fd868b85d3f9d9c8ae906753f19a2bfa9baf079d0f6b574e5",
          "blockNumber": "0x1ede11",
          "transactionHash": "0xa170d7c629b70bb388317c410dbe4bb51b1bd3aa8565596eed4d0ceefce3a5ad",
          "transactionIndex": "0x0",
          "logIndex": "0x0",
          "removed": false
        }
      ],
      "logsBloom": "0x0000000000000000000000000000000000000000000000000080000000000000000000000000000000000000000000000000000000a000000000000000000200000000000000000000000000000000000001000000000000000000000000000000000200020000020000000000000800000000008000000000000000000000400000000000000000000000000000000000000000000000000000000000000000000000000000000000000000000000000000000000000000000000000000000000000000000000000000000000000000000000000000000000000000000020000000000000000000000000000000000000000000000000000000000000000000",
      "type": "0x0",
      "transactionHash": "0xa170d7c629b70bb388317c410dbe4bb51b1bd3aa8565596eed4d0ceefce3a5ad",
      "transactionIndex": "0x0",
      "blockHash": "0xa270471793f5308fd868b85d3f9d9c8ae906753f19a2bfa9baf079d0f6b574e5",
      "blockNumber": "0x1ede11",
      "gasUsed": "0x41d84",
      "effectiveGasPrice": "0x826299e00",
      "from": "0x385f472d28796f1c5138a14f2005608317578739",
      "to": null,
      "contractAddress": "0xc5872820758cb0a1b12fb9102cc0e5cf2f3807a3"
    }
  ],
  "libraries": [],
  "pending": [],
  "returns": {},
  "timestamp": 1739266853,
  "chain": 1114,
  "commit": "140f39e"
}