{
  "transactions": [
    {
      "hash": "0xa4a4499cdb69de2364eea56cb1d60c6890d0a1dd7536ea744d2207918f416228",
      "transactionType": "CREATE",
      "contractName": "Registry",
      "contractAddress": "0xd611059b9849c8a6c877e7b16cc8ef120a505b4d",
      "function": null,
      "arguments": null,
      "transaction": {
        "from": "0x385f472d28796f1c5138a14f2005608317578739",
        "gas": "0x64204",
        "value": "0x0",
        "input": "0x608080604052346071573315605e575f8054336001600160a01b0319821681178355916001600160a01b03909116907f8be0079c531659141344cd1fd0a4f28419497f9722a3daafe3b4186f6b6457e09080a361044990816100768239f35b631e4fbdf760e01b5f525f60045260245ffd5b5f80fdfe60806040526004361015610011575f80fd5b5f3560e01c806304433bbc1461029e578063534e785c146101c8578063715018a6146101715780638da5cb5b1461014a57806392a296c9146100e85763f2fde38b1461005b575f80fd5b346100e45760203660031901126100e4576004356001600160a01b038116908190036100e4576100896103ed565b80156100d1575f80546001600160a01b03198116831782556001600160a01b0316907f8be0079c531659141344cd1fd0a4f28419497f9722a3daafe3b4186f6b6457e09080a3005b631e4fbdf760e01b5f525f60045260245ffd5b5f80fd5b346100e45760203660031901126100e45760043567ffffffffffffffff81116100e45761011b6020913690600401610371565b8160405191805191829101835e600190820190815281900382019020546040516001600160a01b039091168152f35b346100e4575f3660031901126100e4575f546040516001600160a01b039091168152602090f35b346100e4575f3660031901126100e4576101896103ed565b5f80546001600160a01b0319811682556001600160a01b03167f8be0079c531659141344cd1fd0a4f28419497f9722a3daafe3b4186f6b6457e08280a3005b346100e45760403660031901126100e45760043567ffffffffffffffff81116100e4576101f9903690600401610371565b6024356001600160a01b038116908190036100e45760607f88e329cc57342d29142961eef2f362dbac392a0e06bc14a7e6a059e9dc245f9d9261023a6103ed565b604051815190602081818501938085835e81016001815203019020846bffffffffffffffffffffffff60a01b825416179055604051938492604084525180928160408601528585015e5f8383018501526020830152601f01601f19168101030190a1005b346100e45760203660031901126100e45760043567ffffffffffffffff81116100e4576102cf903690600401610371565b6040519080519160208201928084835e60019082019081528190036020019020546001600160a01b03161561032c5760209160405191518091835e600190820190815281900382019020546040516001600160a01b039091168152f35b60405162461bcd60e51b815260206004820152601d60248201527f5265676973747279203a3a2041646472657373206e6f7420666f756e640000006044820152606490fd5b81601f820112156100e45780359067ffffffffffffffff82116103d95760405192601f8301601f19908116603f0116840167ffffffffffffffff8111858210176103d957604052828452602083830101116100e457815f926020809301838601378301015290565b634e487b7160e01b5f52604160045260245ffd5b5f546001600160a01b0316330361040057565b63118cdaa760e01b5f523360045260245ffdfea264697066735822122049c006155cc0794817adf4ef82bf7de0e8e5f26898392e91c508120b028788eb64736f6c634300081c0033",
        "nonce": "0x2",
        "chainId": "0x45a"
      },
      "additionalContracts": [],
      "isFixedGasLimit": false
    },
    {
      "hash": "0x83547c9a34e752989ffcc52ca4ca4540fb8274bb444d2ce9e8c4e19079c40c4d",
      "transactionType": "CALL",
      "contractName": "Registry",
      "contractAddress": "0xd611059b9849c8a6c877e7b16cc8ef120a505b4d",
      "function": "setContractAddress(string,address)",
      "arguments": [
        "TEST",
        "0x385F472D28796F1c5138A14f2005608317578739"
      ],
      "transaction": {
        "from": "0x385f472d28796f1c5138a14f2005608317578739",
        "to": "0xd611059b9849c8a6c877e7b16cc8ef120a505b4d",
        "gas": "0x11657",
        "value": "0x0",
        "input": "0x534e785c0000000000000000000000000000000000000000000000000000000000000040000000000000000000000000385f472d28796f1c5138a14f200560831757873900000000000000000000000000000000000000000000000000000000000000045445535400000000000000000000000000000000000000000000000000000000",
        "nonce": "0x3",
        "chainId": "0x45a"
      },
      "additionalContracts": [],
      "isFixedGasLimit": false
    }
  ],
  "receipts": [
    {
      "status": "0x1",
      "cumulativeGasUsed": "0x6a202",
      "logs": [
        {
          "address": "0xd611059b9849c8a6c877e7b16cc8ef120a505b4d",
          "topics": [
            "0x8be0079c531659141344cd1fd0a4f28419497f9722a3daafe3b4186f6b6457e0",
            "0x0000000000000000000000000000000000000000000000000000000000000000",
            "0x000000000000000000000000385f472d28796f1c5138a14f2005608317578739"
          ],
          "data": "0x",
          "blockHash": "0x8426ce1bddd9c3e0007dde12afd992e1245d293fbfebf342daff6c19c759f895",
          "blockNumber": "0x1eddbd",
          "transactionHash": "0xa4a4499cdb69de2364eea56cb1d60c6890d0a1dd7536ea744d2207918f416228",
          "transactionIndex": "0x1",
          "logIndex": "0x2",
          "removed": false
        }
      ],
      "logsBloom": "0x00000000000000000000000000000000000000000000000000800000000000000000000000000000000000000000000020000000002000000000200000000000000000000000000000000000000000000001000000000000000000000000000000000200020000000000000000000800000000008000000000000000000000400000000000000000000000000000000000000000000000000000000000000000000000000000000000000000000000000000000000000000000000000000000001000000000000000000000000000000000000000000000000000000000020000000000000000000000000000000000000000000000000000000000000000000",
      "type": "0x0",
      "transactionHash": "0xa4a4499cdb69de2364eea56cb1d60c6890d0a1dd7536ea744d2207918f416228",
      "transactionIndex": "0x1",
      "blockHash": "0x8426ce1bddd9c3e0007dde12afd992e1245d293fbfebf342daff6c19c759f895",
      "blockNumber": "0x1eddbd",
      "gasUsed": "0x4d052",
      "effectiveGasPrice": "0x826299e00",
      "from": "0x385f472d28796f1c5138a14f2005608317578739",
      "to": null,
      "contractAddress": "0xd611059b9849c8a6c877e7b16cc8ef120a505b4d"
    }
  ],
  "libraries": [],
  "pending": [],
  "returns": {},
  "timestamp": 1739266601,
  "chain": 1114,
  "commit": "140f39e"
}