{
  "transactions": [
    {
      "hash": "0x0df7201d81ad949cff2d1248b8b21be7df16a2db9fd999c6ec5b399c6b5aaac8",
      "transactionType": "CREATE",
      "contractName": "Registry",
      "contractAddress": "0x0f1682177dc7e6bbd371e36fa979132ab7cbea4f",
      "function": null,
      "arguments": null,
      "transaction": {
        "from": "0x385f472d28796f1c5138a14f2005608317578739",
        "gas": "0x4ea99",
        "value": "0x0",
        "input": "0x608080604052346071573315605e575f8054336001600160a01b0319821681178355916001600160a01b03909116907f8be0079c531659141344cd1fd0a4f28419497f9722a3daafe3b4186f6b6457e09080a361031090816100768239f35b631e4fbdf760e01b5f525f60045260245ffd5b5f80fdfe6080806040526004361015610012575f80fd5b5f3560e01c9081630d2020dd1461022057508063715018a6146101c95780637ef50298146101975780638da5cb5b14610170578063e001f841146100eb5763f2fde38b1461005e575f80fd5b346100e75760203660031901126100e7576004356001600160a01b038116908190036100e75761008c6102b4565b80156100d4575f80546001600160a01b03198116831782556001600160a01b0316907f8be0079c531659141344cd1fd0a4f28419497f9722a3daafe3b4186f6b6457e09080a3005b631e4fbdf760e01b5f525f60045260245ffd5b5f80fd5b346100e75760403660031901126100e7576004356024356001600160a01b038116908190036100e7577f93944d1916457afa794f5da38d669341816983c303bca958cc0003bd948627cd916040916101416102b4565b815f526001602052825f20816bffffffffffffffffffffffff60a01b82541617905582519182526020820152a1005b346100e7575f3660031901126100e7575f546040516001600160a01b039091168152602090f35b346100e75760203660031901126100e7576004355f526001602052602060018060a01b0360405f205416604051908152f35b346100e7575f3660031901126100e7576101e16102b4565b5f80546001600160a01b0319811682556001600160a01b03167f8be0079c531659141344cd1fd0a4f28419497f9722a3daafe3b4186f6b6457e08280a3005b346100e75760203660031901126100e7576004355f818152600160205260409020549091906001600160a01b03161561027257505f526001602052602060018060a01b0360405f205416604051908152f35b62461bcd60e51b815260206004820152601d60248201527f5265676973747279203a3a2041646472657373206e6f7420666f756e640000006044820152606490fd5b5f546001600160a01b031633036102c757565b63118cdaa760e01b5f523360045260245ffdfea26469706673582212200403c58c20d0580958900fd0ff8a7aa1d7d92be0192f8c487beed6250fd98b6d64736f6c634300081c0033",
        "nonce": "0x15",
        "chainId": "0x45a"
      },
      "additionalContracts": [],
      "isFixedGasLimit": false
    },
    {
      "hash": "0x2220386ebd86008748d86e59711b023a28dcd088555d69f105b5d0d6a8a681c1",
      "transactionType": "CREATE",
      "contractName": "CounterGame",
      "contractAddress": "0xe7f5f48b6dae5ad9b5ed6bebd87e268bd9566d5a",
      "function": null,
      "arguments": null,
      "transaction": {
        "from": "0x385f472d28796f1c5138a14f2005608317578739",
        "gas": "0x596b6",
        "value": "0x0",
        "input": "0x608080604052346071573315605e575f8054336001600160a01b0319821681178355916001600160a01b03909116907f8be0079c531659141344cd1fd0a4f28419497f9722a3daafe3b4186f6b6457e09080a36103ad90816100768239f35b631e4fbdf760e01b5f525f60045260245ffd5b5f80fdfe6080806040526004361015610012575f80fd5b5f3560e01c90816352e9a6401461029757508063715018a6146102405780637b103999146102185780638a19c8bc146101fb5780638da5cb5b146101d4578063a91ee0dc1461018a578063c732d2011461016d578063d09de08a14610153578063f2fde38b146100ca5763f50ddbc71461008a575f80fd5b346100c65760203660031901126100c6576004356001600160a01b038116908190036100c6575f526003602052602060405f2054604051908152f35b5f80fd5b346100c65760203660031901126100c6576004356001600160a01b038116908190036100c6576100f8610351565b8015610140575f80546001600160a01b03198116831782556001600160a01b0316907f8be0079c531659141344cd1fd0a4f28419497f9722a3daafe3b4186f6b6457e09080a3005b631e4fbdf760e01b5f525f60045260245ffd5b346100c6575f3660031901126100c65761016b6102e7565b005b346100c6575f3660031901126100c6576020600554604051908152f35b346100c65760203660031901126100c6576004356001600160a01b038116908190036100c6576101b8610351565b6bffffffffffffffffffffffff60a01b60015416176001555f80f35b346100c6575f3660031901126100c6575f546040516001600160a01b039091168152602090f35b346100c6575f3660031901126100c6576020600454604051908152f35b346100c6575f3660031901126100c6576001546040516001600160a01b039091168152602090f35b346100c6575f3660031901126100c657610258610351565b5f80546001600160a01b0319811682556001600160a01b03167f8be0079c531659141344cd1fd0a4f28419497f9722a3daafe3b4186f6b6457e08280a3005b346100c65760203660031901126100c6576020906004355f526002825260018060a01b0360405f2054168152f35b5f1981146102d35760010190565b634e487b7160e01b5f52601160045260245ffd5b600a6102f46005546102c5565b80600555101561030057565b5f6005556004545f52600260205260405f20336bffffffffffffffffffffffff60a01b8254161790556103346004546102c5565b600455335f52600360205260405f2061034d81546102c5565b9055565b5f546001600160a01b0316330361036457565b63118cdaa760e01b5f523360045260245ffdfea2646970667358221220cc7e15017a17e151d0295b66202488f6c789a4f77041c90254ee01ad07e03d3a64736f6c634300081c0033",
        "nonce": "0x16",
        "chainId": "0x45a"
      },
      "additionalContracts": [],
      "isFixedGasLimit": false
    },
    {
      "hash": "0xaf51722a3eacbeba6db6bf67a3d088f1997e640388d2468256bd28c31c67e794",
      "transactionType": "CREATE",
      "contractName": "CounterToken",
      "contractAddress": "0x8704462cff2396295977519fe920c4a010c65dd1",
      "function": null,
      "arguments": null,
      "transaction": {
        "from": "0x385f472d28796f1c5138a14f2005608317578739",
        "gas": "0xb56c0",
        "value": "0x0",
        "input": "0x60806040523461037757604080519081016001600160401b0381118282101761028a576040908152600d82526c21b7bab73a32b9102a37b5b2b760991b602083015280519081016001600160401b0381118282101761028a57604052600781526621b7bab73a32b960c91b602082015281516001600160401b03811161028a57600354600181811c9116801561036d575b602082101461026c57601f811161030a575b50602092601f82116001146102a957928192935f9261029e575b50508160011b915f199060031b1c1916176003555b80516001600160401b03811161028a57600454600181811c91168015610280575b602082101461026c57601f8111610209575b50602091601f82116001146101a9579181925f9261019e575b50508160011b915f199060031b1c1916176004555b331561018b5760058054336001600160a01b03198216811790925560405191906001600160a01b03167f8be0079c531659141344cd1fd0a4f28419497f9722a3daafe3b4186f6b6457e05f80a36107df908161037c8239f35b631e4fbdf760e01b5f525f60045260245ffd5b015190505f8061011d565b601f1982169260045f52805f20915f5b8581106101f1575083600195106101d9575b505050811b01600455610132565b01515f1960f88460031b161c191690555f80806101cb565b919260206001819286850151815501940192016101b9565b60045f527f8a35acfbc15ff81a39ae7d344fd709f28e8600b4aa8c65c6b64bfe7fe36bd19b601f830160051c81019160208410610262575b601f0160051c01905b8181106102575750610104565b5f815560010161024a565b9091508190610241565b634e487b7160e01b5f52602260045260245ffd5b90607f16906100f2565b634e487b7160e01b5f52604160045260245ffd5b015190505f806100bc565b601f1982169360035f52805f20915f5b8681106102f257508360019596106102da575b505050811b016003556100d1565b01515f1960f88460031b161c191690555f80806102cc565b919260206001819286850151815501940192016102b9565b60035f527fc2575a0e9e593c00f959f8c92f12db2869c3395a3b0502d05e2516446f71f85b601f830160051c81019160208410610363575b601f0160051c01905b81811061035857506100a2565b5f815560010161034b565b9091508190610342565b90607f1690610090565b5f80fdfe6080806040526004361015610012575f80fd5b5f3560e01c90816306fdde03146105b357508063095ea7b31461053157806318160ddd1461051457806323b872dd14610435578063313ce5671461041a57806340c10f191461036e57806370a0823114610337578063715018a6146102dc5780638da5cb5b146102b457806395d89b4114610199578063a9059cbb14610168578063dd62ed3e146101185763f2fde38b146100ab575f80fd5b34610114576020366003190112610114576100c46106ac565b6100cc610782565b600580546001600160a01b039283166001600160a01b0319821681179092559091167f8be0079c531659141344cd1fd0a4f28419497f9722a3daafe3b4186f6b6457e05f80a3005b5f80fd5b34610114576040366003190112610114576101316106ac565b6101396106c2565b6001600160a01b039182165f908152600160209081526040808320949093168252928352819020549051908152f35b346101145760403660031901126101145761018e6101846106ac565b60243590336106d8565b602060405160018152f35b34610114575f366003190112610114576040515f6004548060011c906001811680156102aa575b6020831081146102965782855290811561027a5750600114610225575b50819003601f01601f191681019067ffffffffffffffff8211818310176102115761020d82918260405282610682565b0390f35b634e487b7160e01b5f52604160045260245ffd5b905060045f527f8a35acfbc15ff81a39ae7d344fd709f28e8600b4aa8c65c6b64bfe7fe36bd19b5f905b828210610264575060209150820101826101dd565b600181602092548385880101520191019061024f565b90506020925060ff191682840152151560051b820101826101dd565b634e487b7160e01b5f52602260045260245ffd5b91607f16916101c0565b34610114575f366003190112610114576005546040516001600160a01b039091168152602090f35b34610114575f366003190112610114576102f4610782565b600580546001600160a01b031981169091555f906001600160a01b03167f8be0079c531659141344cd1fd0a4f28419497f9722a3daafe3b4186f6b6457e08280a3005b34610114576020366003190112610114576001600160a01b036103586106ac565b165f525f602052602060405f2054604051908152f35b34610114576040366003190112610114576103876106ac565b60243590610393610782565b6001600160a01b031690811561040757600254908082018092116103f35760207fddf252ad1be2c89b69c2b068fc378daa952ba7f163c4a11628f55a4df523b3ef915f9360025584845283825260408420818154019055604051908152a3005b634e487b7160e01b5f52601160045260245ffd5b63ec442f0560e01b5f525f60045260245ffd5b34610114575f36600319011261011457602060405160128152f35b346101145760603660031901126101145761044e6106ac565b6104566106c2565b6001600160a01b0382165f818152600160209081526040808320338452909152902054909260443592915f198110610494575b5061018e93506106d8565b8381106104f95784156104e65733156104d35761018e945f52600160205260405f2060018060a01b0333165f526020528360405f209103905584610489565b634a1406b160e11b5f525f60045260245ffd5b63e602df0560e01b5f525f60045260245ffd5b8390637dc7a0d960e11b5f523360045260245260445260645ffd5b34610114575f366003190112610114576020600254604051908152f35b346101145760403660031901126101145761054a6106ac565b6024359033156104e6576001600160a01b03169081156104d357335f52600160205260405f20825f526020528060405f20556040519081527f8c5be1e5ebec7d5bd14f71427d1e84f3dd0314c0f7b2291e5b200ac8c7c3b92560203392a3602060405160018152f35b34610114575f366003190112610114575f6003548060011c90600181168015610678575b6020831081146102965782855290811561027a57506001146106235750819003601f01601f191681019067ffffffffffffffff8211818310176102115761020d82918260405282610682565b905060035f527fc2575a0e9e593c00f959f8c92f12db2869c3395a3b0502d05e2516446f71f85b5f905b828210610662575060209150820101826101dd565b600181602092548385880101520191019061064d565b91607f16916105d7565b602060409281835280519182918282860152018484015e5f828201840152601f01601f1916010190565b600435906001600160a01b038216820361011457565b602435906001600160a01b038216820361011457565b6001600160a01b031690811561076f576001600160a01b031691821561040757815f525f60205260405f205481811061075657817fddf252ad1be2c89b69c2b068fc378daa952ba7f163c4a11628f55a4df523b3ef92602092855f525f84520360405f2055845f525f825260405f20818154019055604051908152a3565b8263391434e360e21b5f5260045260245260445260645ffd5b634b637e8f60e11b5f525f60045260245ffd5b6005546001600160a01b0316330361079657565b63118cdaa760e01b5f523360045260245ffdfea2646970667358221220e9dbeaf94bcae740e92e931094c47a917920ec093ba720ce8f2fe5cefea17b2464736f6c634300081c0033",
        "nonce": "0x17",
        "chainId": "0x45a"
      },
      "additionalContracts": [],
      "isFixedGasLimit": false
    },
    {
      "hash": "0x77caa266968c45efae93c94116b21892486673375e41224c244f541f049a57de",
      "transactionType": "CALL",
      "contractName": "Registry",
      "contractAddress": "0x0f1682177dc7e6bbd371e36fa979132ab7cbea4f",
      "function": "setContractAddress(bytes32,address)",
      "arguments": [
        "0x5265676973747279000000000000000000000000000000000000000000000000",
        "0x0f1682177dc7E6Bbd371E36fa979132aB7CBea4f"
      ],
      "transaction": {
        "from": "0x385f472d28796f1c5138a14f2005608317578739",
        "to": "0x0f1682177dc7e6bbd371e36fa979132ab7cbea4f",
        "gas": "0x100c7",
        "value": "0x0",
        "input": "0xe001f84152656769737472790000000000000000000000000000000000000000000000000000000000000000000000000f1682177dc7e6bbd371e36fa979132ab7cbea4f",
        "nonce": "0x18",
        "chainId": "0x45a"
      },
      "additionalContracts": [],
      "isFixedGasLimit": false
    },
    {
      "hash": "0xa73d435bad2c10c963e05155488631298807f466ab8a276c8eaed21828b2dfbe",
      "transactionType": "CALL",
      "contractName": "Registry",
      "contractAddress": "0x0f1682177dc7e6bbd371e36fa979132ab7cbea4f",
      "function": "setContractAddress(bytes32,address)",
      "arguments": [
        "0x436f756e74657247616d65000000000000000000000000000000000000000000",
        "0xE7f5f48b6dAE5Ad9B5Ed6bEBd87e268Bd9566d5a"
      ],
      "transaction": {
        "from": "0x385f472d28796f1c5138a14f2005608317578739",
        "to": "0x0f1682177dc7e6bbd371e36fa979132ab7cbea4f",
        "gas": "0x100f9",
        "value": "0x0",
        "input": "0xe001f841436f756e74657247616d65000000000000000000000000000000000000000000000000000000000000000000e7f5f48b6dae5ad9b5ed6bebd87e268bd9566d5a",
        "nonce": "0x19",
        "chainId": "0x45a"
      },
      "additionalContracts": [],
      "isFixedGasLimit": false
    },
    {
      "hash": "0xc7da715caf88023221bd01382a446895ffa4d11999ee6773a222e5d8b6c49a62",
      "transactionType": "CALL",
      "contractName": "Registry",
      "contractAddress": "0x0f1682177dc7e6bbd371e36fa979132ab7cbea4f",
      "function": "setContractAddress(bytes32,address)",
      "arguments": [
        "0x436f756e746572546f6b656e0000000000000000000000000000000000000000",
        "0x8704462cFf2396295977519Fe920C4a010C65dd1"
      ],
      "transaction": {
        "from": "0x385f472d28796f1c5138a14f2005608317578739",
        "to": "0x0f1682177dc7e6bbd371e36fa979132ab7cbea4f",
        "gas": "0x1010a",
        "value": "0x0",
        "input": "0xe001f841436f756e746572546f6b656e00000000000000000000000000000000000000000000000000000000000000008704462cff2396295977519fe920c4a010c65dd1",
        "nonce": "0x1a",
        "chainId": "0x45a"
      },
      "additionalContracts": [],
      "isFixedGasLimit": false
    },
    {
      "hash": "0x7d24c55b0a13ed117169f29a9f17ac974fb99d7a5cd29d943d53f511f55e364e",
      "transactionType": "CALL",
      "contractName": "CounterToken",
      "contractAddress": "0x8704462cff2396295977519fe920c4a010c65dd1",
      "function": "transferOwnership(address)",
      "arguments": [
        "0xE7f5f48b6dAE5Ad9B5Ed6bEBd87e268Bd9566d5a"
      ],
      "transaction": {
        "from": "0x385f472d28796f1c5138a14f2005608317578739",
        "to": "0x8704462cff2396295977519fe920c4a010c65dd1",
        "gas": "0xa3a0",
        "value": "0x0",
        "input": "0xf2fde38b000000000000000000000000e7f5f48b6dae5ad9b5ed6bebd87e268bd9566d5a",
        "nonce": "0x1b",
        "chainId": "0x45a"
      },
      "additionalContracts": [],
      "isFixedGasLimit": false
    },
    {
      "hash": "0xfb78acb0a68101611025ae8a8fbd92c133261e03c86202380e0dba2974e54845",
      "transactionType": "CALL",
      "contractName": "CounterGame",
      "contractAddress": "0xe7f5f48b6dae5ad9b5ed6bebd87e268bd9566d5a",
      "function": "setRegistry(address)",
      "arguments": [
        "0x0f1682177dc7E6Bbd371E36fa979132aB7CBea4f"
      ],
      "transaction": {
        "from": "0x385f472d28796f1c5138a14f2005608317578739",
        "to": "0xe7f5f48b6dae5ad9b5ed6bebd87e268bd9566d5a",
        "gas": "0xf841",
        "value": "0x0",
        "input": "0xa91ee0dc0000000000000000000000000f1682177dc7e6bbd371e36fa979132ab7cbea4f",
        "nonce": "0x1c",
        "chainId": "0x45a"
      },
      "additionalContracts": [],
      "isFixedGasLimit": false
    }
  ],
  "receipts": [
    {
      "status": "0x1",
      "cumulativeGasUsed": "0x3c827",
      "logs": [
        {
          "address": "0x0f1682177dc7e6bbd371e36fa979132ab7cbea4f",
          "topics": [
            "0x8be0079c531659141344cd1fd0a4f28419497f9722a3daafe3b4186f6b6457e0",
            "0x0000000000000000000000000000000000000000000000000000000000000000",
            "0x000000000000000000000000385f472d28796f1c5138a14f2005608317578739"
          ],
          "data": "0x",
          "blockHash": "0x0038e3e205b1f29323a9653848ac551c6f991c562d84f898c8deb8fb20d2194a",
          "blockNumber": "0x1edef6",
          "transactionHash": "0x0df7201d81ad949cff2d1248b8b21be7df16a2db9fd999c6ec5b399c6b5aaac8",
          "transactionIndex": "0x0",
          "logIndex": "0x0",
          "removed": false
        }
      ],
      "logsBloom": "0x0000000040000000000000000000000000000000000000000080000000000000000000000000000000000000000000000000000000a000000000000000000000000000000000000000000000000000000001000000000000000000000000000000000200020000000000000000000800000000008000000000000000000000400000000000000000000000000000000000000000000000000000000000000000000000000000000000000000000000000000000000000000000000000000000000000000000000000000000000000000000000000000000000000000000020000000000000000000000800000000000000000000000000000000000000000000",
      "type": "0x0",
      "transactionHash": "0x0df7201d81ad949cff2d1248b8b21be7df16a2db9fd999c6ec5b399c6b5aaac8",
      "transactionIndex": "0x0",
      "blockHash": "0x0038e3e205b1f29323a9653848ac551c6f991c562d84f898c8deb8fb20d2194a",
      "blockNumber": "0x1edef6",
      "gasUsed": "0x3c827",
      "effectiveGasPrice": "0x826299e00",
      "from": "0x385f472d28796f1c5138a14f2005608317578739",
      "to": null,
      "contractAddress": "0x0f1682177dc7e6bbd371e36fa979132ab7cbea4f"
    },
    {
      "status": "0x1",
      "cumulativeGasUsed": "0x44c8c",
      "logs": [
        {
          "address": "0xe7f5f48b6dae5ad9b5ed6bebd87e268bd9566d5a",
          "topics": [
            "0x8be0079c531659141344cd1fd0a4f28419497f9722a3daafe3b4186f6b6457e0",
            "0x0000000000000000000000000000000000000000000000000000000000000000",
            "0x000000000000000000000000385f472d28796f1c5138a14f2005608317578739"
          ],
          "data": "0x",
          "blockHash": "0x92d42ceb64c26441c5eaebe39d61be2967bc9e16320ea361da8e28dbe9f1da9d",
          "blockNumber": "0x1edef7",
          "transactionHash": "0x2220386ebd86008748d86e59711b023a28dcd088555d69f105b5d0d6a8a681c1",
          "transactionIndex": "0x0",
          "logIndex": "0x0",
          "removed": false
        }
      ],
      "logsBloom": "0x00000000000000000000000000000000000000000000000000800000000000000000000000000000000000000000200000000000002000000000000000000000000000000000000000000000000000000001000000000000000000000000000000000200020000000000000000000800000000008000000000000000000000400000000000000000000000000100000000000000000000000000000000000000000000000000000000000000000000000000000000000000000000000000000000000000000000000000000000000000000000000000000000000000000020000100000000000000000000000000000000000000000000000000000000000000",
      "type": "0x0",
      "transactionHash": "0x2220386ebd86008748d86e59711b023a28dcd088555d69f105b5d0d6a8a681c1",
      "transactionIndex": "0x0",
      "blockHash": "0x92d42ceb64c26441c5eaebe39d61be2967bc9e16320ea361da8e28dbe9f1da9d",
      "blockNumber": "0x1edef7",
      "gasUsed": "0x44c8c",
      "effectiveGasPrice": "0x826299e00",
      "from": "0x385f472d28796f1c5138a14f2005608317578739",
      "to": null,
      "contractAddress": "0xe7f5f48b6dae5ad9b5ed6bebd87e268bd9566d5a"
    },
    {
      "status": "0x1",
      "cumulativeGasUsed": "0x8b8e3",
      "logs": [
        {
          "address": "0x8704462cff2396295977519fe920c4a010c65dd1",
          "topics": [
            "0x8be0079c531659141344cd1fd0a4f28419497f9722a3daafe3b4186f6b6457e0",
            "0x0000000000000000000000000000000000000000000000000000000000000000",
            "0x000000000000000000000000385f472d28796f1c5138a14f2005608317578739"
          ],
          "data": "0x",
          "blockHash": "0x2754c159a202fbe0d30190edf3d9f6ade2f1d06c94d06a82c48223a445af7630",
          "blockNumber": "0x1edef8",
          "transactionHash": "0xaf51722a3eacbeba6db6bf67a3d088f1997e640388d2468256bd28c31c67e794",
          "transactionIndex": "0x0",
          "logIndex": "0x0",
          "removed": false
        }
      ],
      "logsBloom": "0x00000000000000000000000000000000000000000000000000800000000000000000000000000000000000000000000000000000002000000000000000000000000000000000000000000000000000000001000000000000000000000000000080000200020000000000000000000800000000008000001000000000000000400000000000000000000000000000000000000000000000000000000000000000000000000000000000000000000000000000000000000000000000000000000000000000000000000000000000000000000080000000000000000000000020000000000000000000000000000000000000000000000000000000000000000000",
      "type": "0x0",
      "transactionHash": "0xaf51722a3eacbeba6db6bf67a3d088f1997e640388d2468256bd28c31c67e794",
      "transactionIndex": "0x0",
      "blockHash": "0x2754c159a202fbe0d30190edf3d9f6ade2f1d06c94d06a82c48223a445af7630",
      "blockNumber": "0x1edef8",
      "gasUsed": "0x8b8e3",
      "effectiveGasPrice": "0x826299e00",
      "from": "0x385f472d28796f1c5138a14f2005608317578739",
      "to": null,
      "contractAddress": "0x8704462cff2396295977519fe920c4a010c65dd1"
    },
    {
      "status": "0x1",
      "cumulativeGasUsed": "0x60612",
      "logs": [
        {
          "address": "0x0f1682177dc7e6bbd371e36fa979132ab7cbea4f",
          "topics": [
            "0x93944d1916457afa794f5da38d669341816983c303bca958cc0003bd948627cd"
          ],
          "data": "0x52656769737472790000000000000000000000000000000000000000000000000000000000000000000000000f1682177dc7e6bbd371e36fa979132ab7cbea4f",
          "blockHash": "0x467644c6ebdfbb48895adce9b74473a4192cbfee1e813404b660ced16b8b2a1d",
          "blockNumber": "0x1edef9",
          "transactionHash": "0x77caa266968c45efae93c94116b21892486673375e41224c244f541f049a57de",
          "transactionIndex": "0x1",
          "logIndex": "0x7",
          "removed": false
        }
      ],
      "logsBloom": "0x00000000400000000000000000000000000000000000000000000000000000000000000000000000000000000000000000000000008000000000000000000000000000000020000000000000000000000000000080000000000000000000000000000000000000000000000000000000000000000000000000000000000000000000000000000000000000000000000000000000000000000000000000000000100000000000000000000000000000000000000000000000000000000000000000000000000000000000000000000000000000000000000000000000000000000000000000000000000800000000000000000000000000000000000000000000",
      "type": "0x0",
      "transactionHash": "0x77caa266968c45efae93c94116b21892486673375e41224c244f541f049a57de",
      "transactionIndex": "0x1",
      "blockHash": "0x467644c6ebdfbb48895adce9b74473a4192cbfee1e813404b660ced16b8b2a1d",
      "blockNumber": "0x1edef9",
      "gasUsed": "0xb9e8",
      "effectiveGasPrice": "0x826299e00",
      "from": "0x385f472d28796f1c5138a14f2005608317578739",
      "to": "0x0f1682177dc7e6bbd371e36fa979132ab7cbea4f",
      "contractAddress": null
    },
    {
      "status": "0x1",
      "cumulativeGasUsed": "0xba0c",
      "logs": [
        {
          "address": "0x0f1682177dc7e6bbd371e36fa979132ab7cbea4f",
          "topics": [
            "0x93944d1916457afa794f5da38d669341816983c303bca958cc0003bd948627cd"
          ],
          "data": "0x436f756e74657247616d65000000000000000000000000000000000000000000000000000000000000000000e7f5f48b6dae5ad9b5ed6bebd87e268bd9566d5a",
          "blockHash": "0xf1409664ad660da5c5381d1f719841b1a68077fd4dfde0449a7719130bca81b0",
          "blockNumber": "0x1edefa",
          "transactionHash": "0xa73d435bad2c10c963e05155488631298807f466ab8a276c8eaed21828b2dfbe",
          "transactionIndex": "0x0",
          "logIndex": "0x0",
          "removed": false
        }
      ],
      "logsBloom": "0x00000000400000000000000000000000000000000000000000000000000000000000000000000000000000000000000000000000008000000000000000000000000000000020000000000000000000000000000080000000000000000000000000000000000000000000000000000000000000000000000000000000000000000000000000000000000000000000000000000000000000000000000000000000100000000000000000000000000000000000000000000000000000000000000000000000000000000000000000000000000000000000000000000000000000000000000000000000000800000000000000000000000000000000000000000000",
      "type": "0x0",
      "transactionHash": "0xa73d435bad2c10c963e05155488631298807f466ab8a276c8eaed21828b2dfbe",
      "transactionIndex": "0x0",
      "blockHash": "0xf1409664ad660da5c5381d1f719841b1a68077fd4dfde0449a7719130bca81b0",
      "blockNumber": "0x1edefa",
      "gasUsed": "0xba0c",
      "effectiveGasPrice": "0x826299e00",
      "from": "0x385f472d28796f1c5138a14f2005608317578739",
      "to": "0x0f1682177dc7e6bbd371e36fa979132ab7cbea4f",
      "contractAddress": null
    },
    {
      "status": "0x1",
      "cumulativeGasUsed": "0xba18",
      "logs": [
        {
          "address": "0x0f1682177dc7e6bbd371e36fa979132ab7cbea4f",
          "topics": [
            "0x93944d1916457afa794f5da38d669341816983c303bca958cc0003bd948627cd"
          ],
          "data": "0x436f756e746572546f6b656e00000000000000000000000000000000000000000000000000000000000000008704462cff2396295977519fe920c4a010c65dd1",
          "blockHash": "0x0d66b1e06686c09ea49733a09abeb80f371106e6d82f2352271f3be77972d64c",
          "blockNumber": "0x1edefb",
          "transactionHash": "0xc7da715caf88023221bd01382a446895ffa4d11999ee6773a222e5d8b6c49a62",
          "transactionIndex": "0x0",
          "logIndex": "0x0",
          "removed": false
        }
      ],
      "logsBloom": "0x00000000400000000000000000000000000000000000000000000000000000000000000000000000000000000000000000000000008000000000000000000000000000000020000000000000000000000000000080000000000000000000000000000000000000000000000000000000000000000000000000000000000000000000000000000000000000000000000000000000000000000000000000000000100000000000000000000000000000000000000000000000000000000000000000000000000000000000000000000000000000000000000000000000000000000000000000000000000800000000000000000000000000000000000000000000",
      "type": "0x0",
      "transactionHash": "0xc7da715caf88023221bd01382a446895ffa4d11999ee6773a222e5d8b6c49a62",
      "transactionIndex": "0x0",
      "blockHash": "0x0d66b1e06686c09ea49733a09abeb80f371106e6d82f2352271f3be77972d64c",
      "blockNumber": "0x1edefb",
      "gasUsed": "0xba18",
      "effectiveGasPrice": "0x826299e00",
      "from": "0x385f472d28796f1c5138a14f2005608317578739",
      "to": "0x0f1682177dc7e6bbd371e36fa979132ab7cbea4f",
      "contractAddress": null
    },
    {
      "status": "0x1",
      "cumulativeGasUsed": "0x6fe2",
      "logs": [
        {
          "address": "0x8704462cff2396295977519fe920c4a010c65dd1",
          "topics": [
            "0x8be0079c531659141344cd1fd0a4f28419497f9722a3daafe3b4186f6b6457e0",
            "0x000000000000000000000000385f472d28796f1c5138a14f2005608317578739",
            "0x000000000000000000000000e7f5f48b6dae5ad9b5ed6bebd87e268bd9566d5a"
          ],
          "data": "0x",
          "blockHash": "0xa8ae3320442e75589862b2d9849abf9908d6c11e917595e29648a1422815c4d0",
          "blockNumber": "0x1edefc",
          "transactionHash": "0x7d24c55b0a13ed117169f29a9f17ac974fb99d7a5cd29d943d53f511f55e364e",
          "transactionIndex": "0x0",
          "logIndex": "0x0",
          "removed": false
        }
      ],
      "logsBloom": "0x00000000000000000000000000000000000000000000000000800000000000000000000000000000000000000000000000000000002000000010000000000000000000000000000000000000080000000001000000800000000000000000000080000200000000000000000000000000000000008000001000000000000000400000000000000000000000000000000000000000000000000000000000000000000000000000000000000000000000000000000000000000000000000000000000000000000000000000000000000000000080000000000000000000000000000000000000000000000000000000000000000000000000000000000000000000",
      "type": "0x0",
      "transactionHash": "0x7d24c55b0a13ed117169f29a9f17ac974fb99d7a5cd29d943d53f511f55e364e",
      "transactionIndex": "0x0",
      "blockHash": "0xa8ae3320442e75589862b2d9849abf9908d6c11e917595e29648a1422815c4d0",
      "blockNumber": "0x1edefc",
      "gasUsed": "0x6fe2",
      "effectiveGasPrice": "0x826299e00",
      "from": "0x385f472d28796f1c5138a14f2005608317578739",
      "to": "0x8704462cff2396295977519fe920c4a010c65dd1",
      "contractAddress": null
    },
    {
      "status": "0x1",
      "cumulativeGasUsed": "0xb3bc",
      "logs": [],
      "logsBloom": "0x00000000000000000000000000000000000000000000000000000000000000000000000000000000000000000000000000000000000000000000000000000000000000000000000000000000000000000000000000000000000000000000000000000000000000000000000000000000000000000000000000000000000000000000000000000000000000000000000000000000000000000000000000000000000000000000000000000000000000000000000000000000000000000000000000000000000000000000000000000000000000000000000000000000000000000000000000000000000000000000000000000000000000000000000000000000",
      "type": "0x0",
      "transactionHash": "0xfb78acb0a68101611025ae8a8fbd92c133261e03c86202380e0dba2974e54845",
      "transactionIndex": "0x0",
      "blockHash": "0xd30aad21a59b702a294639f493b9ab17f1b303a4c9f9ffcd58100aead0777719",
      "blockNumber": "0x1edefd",
      "gasUsed": "0xb3bc",
      "effectiveGasPrice": "0x826299e00",
      "from": "0x385f472d28796f1c5138a14f2005608317578739",
      "to": "0xe7f5f48b6dae5ad9b5ed6bebd87e268bd9566d5a",
      "contractAddress": null
    }
  ],
  "libraries": [],
  "pending": [],
  "returns": {},
  "timestamp": 1739267558,
  "chain": 1114,
  "commit": "140f39e"
}